{
  "_format": "hh-sol-artifact-1",
  "contractName": "Hook",
  "sourceName": "contracts/Hook.sol",
  "abi": [
    {
      "inputs": [
        {
          "internalType": "address",
          "name": "_nft",
          "type": "address"
        },
        {
          "internalType": "address",
          "name": "_usdc",
          "type": "address"
        }
      ],
      "stateMutability": "nonpayable",
      "type": "constructor"
    },
    {
      "inputs": [],
      "name": "NumberBelowThreshold",
      "type": "error"
    },
    {
      "inputs": [
        {
          "internalType": "address",
          "name": "owner",
          "type": "address"
        }
      ],
      "name": "OwnableInvalidOwner",
      "type": "error"
    },
    {
      "inputs": [
        {
          "internalType": "address",
          "name": "account",
          "type": "address"
        }
      ],
      "name": "OwnableUnauthorizedAccount",
      "type": "error"
    },
    {
      "inputs": [],
      "name": "ReentrancyGuardReentrantCall",
      "type": "error"
    },
    {
      "inputs": [],
      "name": "UnauthorizedAttester",
      "type": "error"
    },
    {
      "inputs": [],
      "name": "UnsupportedOperation",
      "type": "error"
    },
    {
      "anonymous": false,
      "inputs": [
        {
          "indexed": true,
          "internalType": "address",
          "name": "user",
          "type": "address"
        },
        {
          "indexed": false,
          "internalType": "uint256",
          "name": "projectId",
          "type": "uint256"
        },
        {
          "indexed": false,
          "internalType": "uint256",
          "name": "amount",
          "type": "uint256"
        }
      ],
      "name": "Deposit",
      "type": "event"
    },
    {
      "anonymous": false,
      "inputs": [
        {
          "indexed": true,
          "internalType": "uint256",
          "name": "projectId",
          "type": "uint256"
        },
        {
          "indexed": true,
          "internalType": "uint256",
          "name": "jobId",
          "type": "uint256"
        },
        {
          "indexed": false,
          "internalType": "string",
          "name": "name",
          "type": "string"
        },
        {
          "indexed": false,
          "internalType": "string",
          "name": "description",
          "type": "string"
        },
        {
          "indexed": false,
          "internalType": "uint256",
          "name": "amount",
          "type": "uint256"
        },
        {
          "indexed": false,
          "internalType": "string",
          "name": "metadata",
          "type": "string"
        },
        {
          "indexed": false,
          "internalType": "address",
          "name": "contractor",
          "type": "address"
        }
      ],
      "name": "JobCreated",
      "type": "event"
    },
    {
      "anonymous": false,
      "inputs": [
        {
          "indexed": true,
          "internalType": "address",
          "name": "previousOwner",
          "type": "address"
        },
        {
          "indexed": true,
          "internalType": "address",
          "name": "newOwner",
          "type": "address"
        }
      ],
      "name": "OwnershipTransferred",
      "type": "event"
    },
    {
      "anonymous": false,
      "inputs": [
        {
          "indexed": true,
          "internalType": "uint256",
          "name": "projectId",
          "type": "uint256"
        },
        {
          "indexed": false,
          "internalType": "uint256",
          "name": "amount",
          "type": "uint256"
        }
      ],
      "name": "ProjectCreated",
      "type": "event"
    },
    {
      "anonymous": false,
      "inputs": [
        {
          "indexed": true,
          "internalType": "uint256",
          "name": "projectId",
          "type": "uint256"
        },
        {
          "indexed": false,
          "internalType": "uint256",
          "name": "amount",
          "type": "uint256"
        }
      ],
      "name": "ProjectTerminated",
      "type": "event"
    },
    {
      "anonymous": false,
      "inputs": [
        {
          "indexed": true,
          "internalType": "address",
          "name": "user",
          "type": "address"
        },
        {
          "indexed": false,
          "internalType": "uint256",
          "name": "projectId",
          "type": "uint256"
        },
        {
          "indexed": false,
          "internalType": "uint256",
          "name": "amount",
          "type": "uint256"
        },
        {
          "indexed": false,
          "internalType": "string",
          "name": "reason",
          "type": "string"
        }
      ],
      "name": "Withdrawn",
      "type": "event"
    },
    {
      "inputs": [
        {
          "internalType": "uint256",
          "name": "",
          "type": "uint256"
        },
        {
          "internalType": "uint256",
          "name": "",
          "type": "uint256"
        }
      ],
      "name": "attestationCount",
      "outputs": [
        {
          "internalType": "uint256",
          "name": "",
          "type": "uint256"
        }
      ],
      "stateMutability": "view",
      "type": "function"
    },
    {
      "inputs": [],
      "name": "counter",
      "outputs": [
        {
          "internalType": "uint256",
          "name": "",
          "type": "uint256"
        }
      ],
      "stateMutability": "view",
      "type": "function"
    },
    {
      "inputs": [
        {
          "internalType": "uint256",
          "name": "_projectId",
          "type": "uint256"
        },
        {
          "internalType": "string",
          "name": "_jobName",
          "type": "string"
        },
        {
          "internalType": "string",
          "name": "_jobDescription",
          "type": "string"
        },
        {
          "internalType": "uint256",
          "name": "_jobAmount",
          "type": "uint256"
        },
        {
          "internalType": "string",
          "name": "_jobMetadata",
          "type": "string"
        }
      ],
      "name": "createJob",
      "outputs": [],
      "stateMutability": "nonpayable",
      "type": "function"
    },
    {
      "inputs": [
        {
          "internalType": "string",
          "name": "_description",
          "type": "string"
        },
        {
          "internalType": "uint256",
          "name": "_amount",
          "type": "uint256"
        }
      ],
      "name": "createProject",
      "outputs": [],
      "stateMutability": "nonpayable",
      "type": "function"
    },
    {
      "inputs": [],
      "name": "data",
      "outputs": [
        {
          "internalType": "bytes",
          "name": "",
          "type": "bytes"
        }
      ],
      "stateMutability": "view",
      "type": "function"
    },
    {
      "inputs": [
        {
          "internalType": "uint256",
          "name": "projectId",
          "type": "uint256"
        },
        {
          "internalType": "uint256",
          "name": "amount",
          "type": "uint256"
        }
      ],
      "name": "deposit",
      "outputs": [],
      "stateMutability": "payable",
      "type": "function"
    },
    {
      "inputs": [
        {
          "internalType": "address",
          "name": "attester",
          "type": "address"
        },
        {
          "internalType": "uint64",
          "name": "",
          "type": "uint64"
        },
        {
          "internalType": "uint64",
          "name": "attestationId",
          "type": "uint64"
        },
        {
          "internalType": "bytes",
          "name": "",
          "type": "bytes"
        }
      ],
      "name": "didReceiveAttestation",
      "outputs": [],
      "stateMutability": "payable",
      "type": "function"
    },
    {
      "inputs": [
        {
          "internalType": "address",
          "name": "",
          "type": "address"
        },
        {
          "internalType": "uint64",
          "name": "",
          "type": "uint64"
        },
        {
          "internalType": "uint64",
          "name": "",
          "type": "uint64"
        },
        {
          "internalType": "contract IERC20",
          "name": "",
          "type": "address"
        },
        {
          "internalType": "uint256",
          "name": "",
          "type": "uint256"
        },
        {
          "internalType": "bytes",
          "name": "",
          "type": "bytes"
        }
      ],
      "name": "didReceiveAttestation",
      "outputs": [],
      "stateMutability": "pure",
      "type": "function"
    },
    {
      "inputs": [
        {
          "internalType": "address",
          "name": "",
          "type": "address"
        },
        {
          "internalType": "uint64",
          "name": "",
          "type": "uint64"
        },
        {
          "internalType": "uint64",
          "name": "",
          "type": "uint64"
        },
        {
          "internalType": "bytes",
          "name": "",
          "type": "bytes"
        }
      ],
      "name": "didReceiveRevocation",
      "outputs": [],
      "stateMutability": "payable",
      "type": "function"
    },
    {
      "inputs": [
        {
          "internalType": "address",
          "name": "",
          "type": "address"
        },
        {
          "internalType": "uint64",
          "name": "",
          "type": "uint64"
        },
        {
          "internalType": "uint64",
          "name": "",
          "type": "uint64"
        },
        {
          "internalType": "contract IERC20",
          "name": "",
          "type": "address"
        },
        {
          "internalType": "uint256",
          "name": "",
          "type": "uint256"
        },
        {
          "internalType": "bytes",
          "name": "",
          "type": "bytes"
        }
      ],
      "name": "didReceiveRevocation",
      "outputs": [],
      "stateMutability": "pure",
      "type": "function"
    },
    {
      "inputs": [
        {
          "internalType": "uint256",
          "name": "projectId",
          "type": "uint256"
        },
        {
          "internalType": "uint256",
          "name": "amount",
          "type": "uint256"
        },
        {
          "internalType": "string",
          "name": "reason",
          "type": "string"
        }
      ],
      "name": "emergencyWithdraw",
      "outputs": [],
      "stateMutability": "nonpayable",
      "type": "function"
    },
    {
      "inputs": [
        {
          "internalType": "uint256",
          "name": "_projectId",
          "type": "uint256"
        },
        {
          "internalType": "uint256",
          "name": "_jobId",
          "type": "uint256"
        }
      ],
      "name": "getJob",
      "outputs": [
        {
          "internalType": "uint256",
          "name": "",
          "type": "uint256"
        },
        {
          "internalType": "string",
          "name": "",
          "type": "string"
        },
        {
          "internalType": "string",
          "name": "",
          "type": "string"
        },
        {
          "internalType": "uint256",
          "name": "",
          "type": "uint256"
        },
        {
          "internalType": "string",
          "name": "",
          "type": "string"
        }
      ],
      "stateMutability": "view",
      "type": "function"
    },
    {
      "inputs": [
        {
          "internalType": "uint256",
          "name": "_projectId",
          "type": "uint256"
        }
      ],
      "name": "getProject",
      "outputs": [
        {
          "internalType": "uint256",
          "name": "",
          "type": "uint256"
        },
        {
          "internalType": "string",
          "name": "",
          "type": "string"
        },
        {
          "internalType": "string",
          "name": "",
          "type": "string"
        },
        {
          "internalType": "uint256",
          "name": "",
          "type": "uint256"
        },
        {
          "components": [
            {
              "internalType": "uint256",
              "name": "jobId",
              "type": "uint256"
            },
            {
              "internalType": "string",
              "name": "name",
              "type": "string"
            },
            {
              "internalType": "string",
              "name": "description",
              "type": "string"
            },
            {
              "internalType": "uint256",
              "name": "amount",
              "type": "uint256"
            },
            {
              "internalType": "string",
              "name": "metadata",
              "type": "string"
            },
            {
              "internalType": "address",
              "name": "contractor",
              "type": "address"
            }
          ],
          "internalType": "struct Hook.Job[]",
          "name": "",
          "type": "tuple[]"
        }
      ],
      "stateMutability": "view",
      "type": "function"
    },
    {
      "inputs": [],
      "name": "nextJobId",
      "outputs": [
        {
          "internalType": "uint256",
          "name": "",
          "type": "uint256"
        }
      ],
      "stateMutability": "view",
      "type": "function"
    },
    {
      "inputs": [],
      "name": "nextProjectId",
      "outputs": [
        {
          "internalType": "uint256",
          "name": "",
          "type": "uint256"
        }
      ],
      "stateMutability": "view",
      "type": "function"
    },
    {
      "inputs": [],
      "name": "nft",
      "outputs": [
        {
          "internalType": "address",
          "name": "",
          "type": "address"
        }
      ],
      "stateMutability": "view",
      "type": "function"
    },
    {
      "inputs": [],
      "name": "owner",
      "outputs": [
        {
          "internalType": "address",
          "name": "",
          "type": "address"
        }
      ],
      "stateMutability": "view",
      "type": "function"
    },
    {
      "inputs": [
        {
          "internalType": "uint256",
          "name": "",
          "type": "uint256"
        }
      ],
      "name": "projects",
      "outputs": [
        {
          "internalType": "uint256",
          "name": "projectId",
          "type": "uint256"
        },
        {
          "internalType": "string",
          "name": "name",
          "type": "string"
        },
        {
          "internalType": "string",
          "name": "description",
          "type": "string"
        },
        {
          "internalType": "uint256",
          "name": "amount",
          "type": "uint256"
        },
        {
          "internalType": "uint8",
          "name": "action",
          "type": "uint8"
        }
      ],
      "stateMutability": "view",
      "type": "function"
    },
    {
      "inputs": [],
      "name": "renounceOwnership",
      "outputs": [],
      "stateMutability": "nonpayable",
      "type": "function"
    },
    {
      "inputs": [
        {
          "internalType": "uint256",
          "name": "threshold_",
          "type": "uint256"
        }
      ],
      "name": "setThreshold",
      "outputs": [],
      "stateMutability": "nonpayable",
      "type": "function"
    },
    {
      "inputs": [
        {
          "internalType": "address",
          "name": "attester",
          "type": "address"
        },
        {
          "internalType": "bool",
          "name": "allowed",
          "type": "bool"
        }
      ],
      "name": "setWhitelist",
      "outputs": [],
      "stateMutability": "nonpayable",
      "type": "function"
    },
    {
      "inputs": [],
      "name": "temp1",
      "outputs": [
        {
          "internalType": "uint256",
          "name": "",
          "type": "uint256"
        }
      ],
      "stateMutability": "view",
      "type": "function"
    },
    {
      "inputs": [],
      "name": "temp2",
      "outputs": [
        {
          "internalType": "uint256",
          "name": "",
          "type": "uint256"
        }
      ],
      "stateMutability": "view",
      "type": "function"
    },
    {
      "inputs": [
        {
          "internalType": "uint256",
          "name": "projectId",
          "type": "uint256"
        }
      ],
      "name": "terminateProject",
      "outputs": [],
      "stateMutability": "nonpayable",
      "type": "function"
    },
    {
      "inputs": [],
      "name": "threshold",
      "outputs": [
        {
          "internalType": "uint256",
          "name": "",
          "type": "uint256"
        }
      ],
      "stateMutability": "view",
      "type": "function"
    },
    {
      "inputs": [
        {
          "internalType": "address",
          "name": "newOwner",
          "type": "address"
        }
      ],
      "name": "transferOwnership",
      "outputs": [],
      "stateMutability": "nonpayable",
      "type": "function"
    },
    {
      "inputs": [],
      "name": "usdc",
      "outputs": [
        {
          "internalType": "address",
          "name": "",
          "type": "address"
        }
      ],
      "stateMutability": "view",
      "type": "function"
    },
    {
      "inputs": [
        {
          "internalType": "address",
          "name": "attester",
          "type": "address"
        }
      ],
      "name": "whitelist",
      "outputs": [
        {
          "internalType": "bool",
          "name": "allowed",
          "type": "bool"
        }
      ],
      "stateMutability": "view",
      "type": "function"
    }
  ],
  "bytecode": "0x60806040526002600855600060095534801561001a57600080fd5b506040516134a93803806134a9833981810160405281019061003c9190610277565b33600073ffffffffffffffffffffffffffffffffffffffff168173ffffffffffffffffffffffffffffffffffffffff16036100af5760006040517f1e4fbdf70000000000000000000000000000000000000000000000000000000081526004016100a691906102c6565b60405180910390fd5b6100be8161015060201b60201c565b50600160028190555081600460006101000a81548173ffffffffffffffffffffffffffffffffffffffff021916908373ffffffffffffffffffffffffffffffffffffffff16021790555080600360006101000a81548173ffffffffffffffffffffffffffffffffffffffff021916908373ffffffffffffffffffffffffffffffffffffffff16021790555050506102e1565b60008060009054906101000a900473ffffffffffffffffffffffffffffffffffffffff169050816000806101000a81548173ffffffffffffffffffffffffffffffffffffffff021916908373ffffffffffffffffffffffffffffffffffffffff1602179055508173ffffffffffffffffffffffffffffffffffffffff168173ffffffffffffffffffffffffffffffffffffffff167f8be0079c531659141344cd1fd0a4f28419497f9722a3daafe3b4186f6b6457e060405160405180910390a35050565b600080fd5b600073ffffffffffffffffffffffffffffffffffffffff82169050919050565b600061024482610219565b9050919050565b61025481610239565b811461025f57600080fd5b50565b6000815190506102718161024b565b92915050565b6000806040838503121561028e5761028d610214565b5b600061029c85828601610262565b92505060206102ad85828601610262565b9150509250929050565b6102c081610239565b82525050565b60006020820190506102db60008301846102b7565b92915050565b6131b9806102f06000396000f3fe6080604052600436106101b75760003560e01c806361bc221a116100ec578063b0c2aa5e1161008a578063e830b5c711610064578063e830b5c7146105c5578063e935b7b1146105ee578063f0f3f2c814610619578063f2fde38b1461065a576101b7565b8063b0c2aa5e14610562578063e2bbb1581461058d578063e33361f4146105a9576101b7565b80638da5cb5b116100c65780638da5cb5b146104a857806391754a5d146104d3578063960bfe04146104fc5780639b19251a14610525576101b7565b806361bc221a1461043b578063715018a61461046657806373d4a13a1461047d576101b7565b80633e413bee116101595780634466507a116101335780634466507a1461039557806347ccca02146103be5780634d7168af146103e957806353d6fd5914610412576101b7565b80633e413bee146103165780633ee658aa1461034157806342cde4e81461036a576101b7565b8063190981661161019557806319098166146102655780631a4bda61146102a657806326d023f3146102cf5780633398b4ed146102fa576101b7565b8063047fd2d3146101bc578063107046bd146101f9578063164ab7e61461023a575b600080fd5b3480156101c857600080fd5b506101e360048036038101906101de9190611b47565b610683565b6040516101f09190611b96565b60405180910390f35b34801561020557600080fd5b50610220600480360381019061021b9190611bb1565b6106a8565b604051610231959493929190611c8a565b60405180910390f35b34801561024657600080fd5b5061024f6107fb565b60405161025c9190611b96565b60405180910390f35b34801561027157600080fd5b5061028c60048036038101906102879190611b47565b610801565b60405161029d959493929190611ceb565b60405180910390f35b3480156102b257600080fd5b506102cd60048036038101906102c89190611e88565b610aa6565b005b3480156102db57600080fd5b506102e4610c75565b6040516102f19190611b96565b60405180910390f35b610314600480360381019061030f9190612055565b610c7b565b005b34801561032257600080fd5b5061032b610dd3565b60405161033891906120ec565b60405180910390f35b34801561034d57600080fd5b5061036860048036038101906103639190611bb1565b610df9565b005b34801561037657600080fd5b5061037f610f5f565b60405161038c9190611b96565b60405180910390f35b3480156103a157600080fd5b506103bc60048036038101906103b79190612145565b610f65565b005b3480156103ca57600080fd5b506103d3610f97565b6040516103e091906120ec565b60405180910390f35b3480156103f557600080fd5b50610410600480360381019061040b919061224a565b610fbd565b005b34801561041e57600080fd5b50610439600480360381019061043491906122f6565b6110c0565b005b34801561044757600080fd5b50610450611123565b60405161045d9190611b96565b60405180910390f35b34801561047257600080fd5b5061047b611129565b005b34801561048957600080fd5b5061049261113d565b60405161049f919061238b565b60405180910390f35b3480156104b457600080fd5b506104bd6111cb565b6040516104ca91906120ec565b60405180910390f35b3480156104df57600080fd5b506104fa60048036038101906104f591906123ad565b6111f4565b005b34801561050857600080fd5b50610523600480360381019061051e9190611bb1565b61134b565b005b34801561053157600080fd5b5061054c60048036038101906105479190612409565b61135d565b6040516105599190612445565b60405180910390f35b34801561056e57600080fd5b5061057761137d565b6040516105849190611b96565b60405180910390f35b6105a760048036038101906105a29190611b47565b611383565b005b6105c360048036038101906105be9190612055565b61147a565b005b3480156105d157600080fd5b506105ec60048036038101906105e79190612145565b6114ac565b005b3480156105fa57600080fd5b506106036114de565b6040516106109190611b96565b60405180910390f35b34801561062557600080fd5b50610640600480360381019061063b9190611bb1565b6114e4565b604051610651959493929190612621565b60405180910390f35b34801561066657600080fd5b50610681600480360381019061067c9190612409565b611903565b005b600d602052816000526040600020602052806000526040600020600091509150505481565b60056020528060005260406000206000915090508060000154908060010180546106d1906126b8565b80601f01602080910402602001604051908101604052809291908181526020018280546106fd906126b8565b801561074a5780601f1061071f5761010080835404028352916020019161074a565b820191906000526020600020905b81548152906001019060200180831161072d57829003601f168201915b50505050509080600201805461075f906126b8565b80601f016020809104026020016040519081016040528092919081815260200182805461078b906126b8565b80156107d85780601f106107ad576101008083540402835291602001916107d8565b820191906000526020600020905b8154815290600101906020018083116107bb57829003601f168201915b5050505050908060030154908060050160009054906101000a900460ff16905085565b600b5481565b600060608060006060600654871061084e576040517f08c379a000000000000000000000000000000000000000000000000000000000815260040161084590612735565b60405180910390fd5b6000600560008981526020019081526020016000209050806004018054905087106108ae576040517f08c379a00000000000000000000000000000000000000000000000000000000081526004016108a5906127a1565b60405180910390fd5b60008160040188815481106108c6576108c56127c1565b5b90600052602060002090600602019050806000015481600101826002018360030154846004018380546108f8906126b8565b80601f0160208091040260200160405190810160405280929190818152602001828054610924906126b8565b80156109715780601f1061094657610100808354040283529160200191610971565b820191906000526020600020905b81548152906001019060200180831161095457829003601f168201915b50505050509350828054610984906126b8565b80601f01602080910402602001604051908101604052809291908181526020018280546109b0906126b8565b80156109fd5780601f106109d2576101008083540402835291602001916109fd565b820191906000526020600020905b8154815290600101906020018083116109e057829003601f168201915b50505050509250808054610a10906126b8565b80601f0160208091040260200160405190810160405280929190818152602001828054610a3c906126b8565b8015610a895780601f10610a5e57610100808354040283529160200191610a89565b820191906000526020600020905b815481529060010190602001808311610a6c57829003601f168201915b505050505090509650965096509650965050509295509295909350565b6006548510610aea576040517f08c379a0000000000000000000000000000000000000000000000000000000008152600401610ae190612735565b60405180910390fd5b60006040518060c0016040528060075481526020018681526020018581526020018481526020018381526020013373ffffffffffffffffffffffffffffffffffffffff16815250905060056000878152602001908152602001600020600401819080600181540180825580915050600190039060005260206000209060060201600090919091909150600082015181600001556020820151816001019081610b92919061299c565b506040820151816002019081610ba8919061299c565b50606082015181600301556080820151816004019081610bc8919061299c565b5060a08201518160050160006101000a81548173ffffffffffffffffffffffffffffffffffffffff021916908373ffffffffffffffffffffffffffffffffffffffff1602179055505050600754867f81cb99e31e7608cd5a8e40ab6617a956882f9d481c39b7b79e025a292025c0938787878733604051610c4d959493929190612a6e565b60405180910390a360076000815480929190610c6890612b05565b9190505550505050505050565b600a5481565b60096000815480929190610c8e90612b05565b91905055506000610c9d611989565b73ffffffffffffffffffffffffffffffffffffffff166362252880856040518263ffffffff1660e01b8152600401610cd59190612b5c565b600060405180830381865afa158015610cf2573d6000803e3d6000fd5b505050506040513d6000823e3d601f19601f82011682018060405250810190610d1b9190612e95565b9050806101200151600c9081610d319190612f39565b50600080826101200151806020019051810190610d4e9190613020565b91509150600d600083815260200190815260200160002060008281526020019081526020016000206000815480929190610d8790612b05565b9190505550610db9600d6000848152602001908152602001600020600083815260200190815260200160002054611991565b15610dc957610dc882826119a0565b5b5050505050505050565b600360009054906101000a900473ffffffffffffffffffffffffffffffffffffffff1681565b610e016119b2565b6006548110610e45576040517f08c379a0000000000000000000000000000000000000000000000000000000008152600401610e3c90612735565b60405180910390fd5b600060056000838152602001908152602001600020905060008160050160006101000a81548160ff021916908360ff160217905550600360009054906101000a900473ffffffffffffffffffffffffffffffffffffffff1673ffffffffffffffffffffffffffffffffffffffff1663a9059cbb3383600301546040518363ffffffff1660e01b8152600401610edb929190613060565b6020604051808303816000875af1158015610efa573d6000803e3d6000fd5b505050506040513d601f19601f82011682018060405250810190610f1e9190613089565b50817fc367b469155be85bcd28bb26ee3edb67ed24d2b1f4f081f22166e780f922f7a98260030154604051610f539190611b96565b60405180910390a25050565b60085481565b6040517f9ba6061b00000000000000000000000000000000000000000000000000000000815260040160405180910390fd5b600460009054906101000a900473ffffffffffffffffffffffffffffffffffffffff1681565b610fc56119b2565b600360009054906101000a900473ffffffffffffffffffffffffffffffffffffffff1673ffffffffffffffffffffffffffffffffffffffff1663a9059cbb33856040518363ffffffff1660e01b8152600401611022929190613060565b6020604051808303816000875af1158015611041573d6000803e3d6000fd5b505050506040513d601f19601f820116820180604052508101906110659190613089565b503373ffffffffffffffffffffffffffffffffffffffff167f62116a798bb58cc967874bea4d771de2f9aeec6c64189ff2e5a551072f3106f9858585856040516110b294939291906130e3565b60405180910390a250505050565b6110c86119b2565b80600160008473ffffffffffffffffffffffffffffffffffffffff1673ffffffffffffffffffffffffffffffffffffffff16815260200190815260200160002060006101000a81548160ff0219169083151502179055505050565b60095481565b6111316119b2565b61113b6000611a39565b565b600c805461114a906126b8565b80601f0160208091040260200160405190810160405280929190818152602001828054611176906126b8565b80156111c35780601f10611198576101008083540402835291602001916111c3565b820191906000526020600020905b8154815290600101906020018083116111a657829003601f168201915b505050505081565b60008060009054906101000a900473ffffffffffffffffffffffffffffffffffffffff16905090565b60006005600060065481526020019081526020016000209050600654816000018190555082816002019081611229919061299c565b5081816003018190555060018160050160006101000a81548160ff021916908360ff160217905550600360009054906101000a900473ffffffffffffffffffffffffffffffffffffffff1673ffffffffffffffffffffffffffffffffffffffff166323b872dd3330856040518463ffffffff1660e01b81526004016112b093929190613123565b6020604051808303816000875af11580156112cf573d6000803e3d6000fd5b505050506040513d601f19601f820116820180604052508101906112f39190613089565b506006547fa759694985087d1b45767e3d6caca9d4fd179a5f1d9d28c42e9fa616113e477a836040516113269190611b96565b60405180910390a26006600081548092919061134190612b05565b9190505550505050565b6113536119b2565b8060088190555050565b60016020528060005260406000206000915054906101000a900460ff1681565b60075481565b600360009054906101000a900473ffffffffffffffffffffffffffffffffffffffff1673ffffffffffffffffffffffffffffffffffffffff166323b872dd3330846040518463ffffffff1660e01b81526004016113e293929190613123565b6020604051808303816000875af1158015611401573d6000803e3d6000fd5b505050506040513d601f19601f820116820180604052508101906114259190613089565b503373ffffffffffffffffffffffffffffffffffffffff167f90890809c654f11d6e72a28fa60149770a0d11ec6c92319d6ceb2bb0a4ea1a15838360405161146e92919061315a565b60405180910390a25050565b6040517f9ba6061b00000000000000000000000000000000000000000000000000000000815260040160405180910390fd5b6040517f9ba6061b00000000000000000000000000000000000000000000000000000000815260040160405180910390fd5b60065481565b6000606080600060606006548610611531576040517f08c379a000000000000000000000000000000000000000000000000000000000815260040161152890612735565b60405180910390fd5b60006005600088815260200190815260200160002090508060000154816001018260020183600301548460040183805461156a906126b8565b80601f0160208091040260200160405190810160405280929190818152602001828054611596906126b8565b80156115e35780601f106115b8576101008083540402835291602001916115e3565b820191906000526020600020905b8154815290600101906020018083116115c657829003601f168201915b505050505093508280546115f6906126b8565b80601f0160208091040260200160405190810160405280929190818152602001828054611622906126b8565b801561166f5780601f106116445761010080835404028352916020019161166f565b820191906000526020600020905b81548152906001019060200180831161165257829003601f168201915b5050505050925080805480602002602001604051908101604052809291908181526020016000905b828210156118e957838290600052602060002090600602016040518060c0016040529081600082015481526020016001820180546116d4906126b8565b80601f0160208091040260200160405190810160405280929190818152602001828054611700906126b8565b801561174d5780601f106117225761010080835404028352916020019161174d565b820191906000526020600020905b81548152906001019060200180831161173057829003601f168201915b50505050508152602001600282018054611766906126b8565b80601f0160208091040260200160405190810160405280929190818152602001828054611792906126b8565b80156117df5780601f106117b4576101008083540402835291602001916117df565b820191906000526020600020905b8154815290600101906020018083116117c257829003601f168201915b5050505050815260200160038201548152602001600482018054611802906126b8565b80601f016020809104026020016040519081016040528092919081815260200182805461182e906126b8565b801561187b5780601f106118505761010080835404028352916020019161187b565b820191906000526020600020905b81548152906001019060200180831161185e57829003601f168201915b505050505081526020016005820160009054906101000a900473ffffffffffffffffffffffffffffffffffffffff1673ffffffffffffffffffffffffffffffffffffffff1673ffffffffffffffffffffffffffffffffffffffff168152505081526020019060010190611697565b505050509050955095509550955095505091939590929450565b61190b6119b2565b600073ffffffffffffffffffffffffffffffffffffffff168173ffffffffffffffffffffffffffffffffffffffff160361197d5760006040517f1e4fbdf700000000000000000000000000000000000000000000000000000000815260040161197491906120ec565b60405180910390fd5b61198681611a39565b50565b600033905090565b60006008548210159050919050565b81600a8190555080600b819055505050565b6119ba611989565b73ffffffffffffffffffffffffffffffffffffffff166119d86111cb565b73ffffffffffffffffffffffffffffffffffffffff1614611a37576119fb611989565b6040517f118cdaa7000000000000000000000000000000000000000000000000000000008152600401611a2e91906120ec565b60405180910390fd5b565b60008060009054906101000a900473ffffffffffffffffffffffffffffffffffffffff169050816000806101000a81548173ffffffffffffffffffffffffffffffffffffffff021916908373ffffffffffffffffffffffffffffffffffffffff1602179055508173ffffffffffffffffffffffffffffffffffffffff168173ffffffffffffffffffffffffffffffffffffffff167f8be0079c531659141344cd1fd0a4f28419497f9722a3daafe3b4186f6b6457e060405160405180910390a35050565b6000604051905090565b600080fd5b600080fd5b6000819050919050565b611b2481611b11565b8114611b2f57600080fd5b50565b600081359050611b4181611b1b565b92915050565b60008060408385031215611b5e57611b5d611b07565b5b6000611b6c85828601611b32565b9250506020611b7d85828601611b32565b9150509250929050565b611b9081611b11565b82525050565b6000602082019050611bab6000830184611b87565b92915050565b600060208284031215611bc757611bc6611b07565b5b6000611bd584828501611b32565b91505092915050565b600081519050919050565b600082825260208201905092915050565b60005b83811015611c18578082015181840152602081019050611bfd565b60008484015250505050565b6000601f19601f8301169050919050565b6000611c4082611bde565b611c4a8185611be9565b9350611c5a818560208601611bfa565b611c6381611c24565b840191505092915050565b600060ff82169050919050565b611c8481611c6e565b82525050565b600060a082019050611c9f6000830188611b87565b8181036020830152611cb18187611c35565b90508181036040830152611cc58186611c35565b9050611cd46060830185611b87565b611ce16080830184611c7b565b9695505050505050565b600060a082019050611d006000830188611b87565b8181036020830152611d128187611c35565b90508181036040830152611d268186611c35565b9050611d356060830185611b87565b8181036080830152611d478184611c35565b90509695505050505050565b600080fd5b600080fd5b7f4e487b7100000000000000000000000000000000000000000000000000000000600052604160045260246000fd5b611d9582611c24565b810181811067ffffffffffffffff82111715611db457611db3611d5d565b5b80604052505050565b6000611dc7611afd565b9050611dd38282611d8c565b919050565b600067ffffffffffffffff821115611df357611df2611d5d565b5b611dfc82611c24565b9050602081019050919050565b82818337600083830152505050565b6000611e2b611e2684611dd8565b611dbd565b905082815260208101848484011115611e4757611e46611d58565b5b611e52848285611e09565b509392505050565b600082601f830112611e6f57611e6e611d53565b5b8135611e7f848260208601611e18565b91505092915050565b600080600080600060a08688031215611ea457611ea3611b07565b5b6000611eb288828901611b32565b955050602086013567ffffffffffffffff811115611ed357611ed2611b0c565b5b611edf88828901611e5a565b945050604086013567ffffffffffffffff811115611f0057611eff611b0c565b5b611f0c88828901611e5a565b9350506060611f1d88828901611b32565b925050608086013567ffffffffffffffff811115611f3e57611f3d611b0c565b5b611f4a88828901611e5a565b9150509295509295909350565b600073ffffffffffffffffffffffffffffffffffffffff82169050919050565b6000611f8282611f57565b9050919050565b611f9281611f77565b8114611f9d57600080fd5b50565b600081359050611faf81611f89565b92915050565b600067ffffffffffffffff82169050919050565b611fd281611fb5565b8114611fdd57600080fd5b50565b600081359050611fef81611fc9565b92915050565b600080fd5b600080fd5b60008083601f84011261201557612014611d53565b5b8235905067ffffffffffffffff81111561203257612031611ff5565b5b60208301915083600182028301111561204e5761204d611ffa565b5b9250929050565b60008060008060006080868803121561207157612070611b07565b5b600061207f88828901611fa0565b955050602061209088828901611fe0565b94505060406120a188828901611fe0565b935050606086013567ffffffffffffffff8111156120c2576120c1611b0c565b5b6120ce88828901611fff565b92509250509295509295909350565b6120e681611f77565b82525050565b600060208201905061210160008301846120dd565b92915050565b600061211282611f77565b9050919050565b61212281612107565b811461212d57600080fd5b50565b60008135905061213f81612119565b92915050565b600080600080600080600060c0888a03121561216457612163611b07565b5b60006121728a828b01611fa0565b97505060206121838a828b01611fe0565b96505060406121948a828b01611fe0565b95505060606121a58a828b01612130565b94505060806121b68a828b01611b32565b93505060a088013567ffffffffffffffff8111156121d7576121d6611b0c565b5b6121e38a828b01611fff565b925092505092959891949750929550565b60008083601f84011261220a57612209611d53565b5b8235905067ffffffffffffffff81111561222757612226611ff5565b5b60208301915083600182028301111561224357612242611ffa565b5b9250929050565b6000806000806060858703121561226457612263611b07565b5b600061227287828801611b32565b945050602061228387828801611b32565b935050604085013567ffffffffffffffff8111156122a4576122a3611b0c565b5b6122b0878288016121f4565b925092505092959194509250565b60008115159050919050565b6122d3816122be565b81146122de57600080fd5b50565b6000813590506122f0816122ca565b92915050565b6000806040838503121561230d5761230c611b07565b5b600061231b85828601611fa0565b925050602061232c858286016122e1565b9150509250929050565b600081519050919050565b600082825260208201905092915050565b600061235d82612336565b6123678185612341565b9350612377818560208601611bfa565b61238081611c24565b840191505092915050565b600060208201905081810360008301526123a58184612352565b905092915050565b600080604083850312156123c4576123c3611b07565b5b600083013567ffffffffffffffff8111156123e2576123e1611b0c565b5b6123ee85828601611e5a565b92505060206123ff85828601611b32565b9150509250929050565b60006020828403121561241f5761241e611b07565b5b600061242d84828501611fa0565b91505092915050565b61243f816122be565b82525050565b600060208201905061245a6000830184612436565b92915050565b600081519050919050565b600082825260208201905092915050565b6000819050602082019050919050565b61249581611b11565b82525050565b600082825260208201905092915050565b60006124b782611bde565b6124c1818561249b565b93506124d1818560208601611bfa565b6124da81611c24565b840191505092915050565b6124ee81611f77565b82525050565b600060c08301600083015161250c600086018261248c565b506020830151848203602086015261252482826124ac565b9150506040830151848203604086015261253e82826124ac565b9150506060830151612553606086018261248c565b506080830151848203608086015261256b82826124ac565b91505060a083015161258060a08601826124e5565b508091505092915050565b600061259783836124f4565b905092915050565b6000602082019050919050565b60006125b782612460565b6125c1818561246b565b9350836020820285016125d38561247c565b8060005b8581101561260f57848403895281516125f0858261258b565b94506125fb8361259f565b925060208a019950506001810190506125d7565b50829750879550505050505092915050565b600060a0820190506126366000830188611b87565b81810360208301526126488187611c35565b9050818103604083015261265c8186611c35565b905061266b6060830185611b87565b818103608083015261267d81846125ac565b90509695505050505050565b7f4e487b7100000000000000000000000000000000000000000000000000000000600052602260045260246000fd5b600060028204905060018216806126d057607f821691505b6020821081036126e3576126e2612689565b5b50919050565b7f50726f6a65637420646f6573206e6f742065786973742e000000000000000000600082015250565b600061271f601783611be9565b915061272a826126e9565b602082019050919050565b6000602082019050818103600083015261274e81612712565b9050919050565b7f4a6f6220646f6573206e6f742065786973742e00000000000000000000000000600082015250565b600061278b601383611be9565b915061279682612755565b602082019050919050565b600060208201905081810360008301526127ba8161277e565b9050919050565b7f4e487b7100000000000000000000000000000000000000000000000000000000600052603260045260246000fd5b60008190508160005260206000209050919050565b60006020601f8301049050919050565b600082821b905092915050565b6000600883026128527fffffffffffffffffffffffffffffffffffffffffffffffffffffffffffffffff82612815565b61285c8683612815565b95508019841693508086168417925050509392505050565b6000819050919050565b600061289961289461288f84611b11565b612874565b611b11565b9050919050565b6000819050919050565b6128b38361287e565b6128c76128bf826128a0565b848454612822565b825550505050565b600090565b6128dc6128cf565b6128e78184846128aa565b505050565b5b8181101561290b576129006000826128d4565b6001810190506128ed565b5050565b601f82111561295057612921816127f0565b61292a84612805565b81016020851015612939578190505b61294d61294585612805565b8301826128ec565b50505b505050565b600082821c905092915050565b600061297360001984600802612955565b1980831691505092915050565b600061298c8383612962565b9150826002028217905092915050565b6129a582611bde565b67ffffffffffffffff8111156129be576129bd611d5d565b5b6129c882546126b8565b6129d382828561290f565b600060209050601f831160018114612a0657600084156129f4578287015190505b6129fe8582612980565b865550612a66565b601f198416612a14866127f0565b60005b82811015612a3c57848901518255600182019150602085019450602081019050612a17565b86831015612a595784890151612a55601f891682612962565b8355505b6001600288020188555050505b505050505050565b600060a0820190508181036000830152612a888188611c35565b90508181036020830152612a9c8187611c35565b9050612aab6040830186611b87565b8181036060830152612abd8185611c35565b9050612acc60808301846120dd565b9695505050505050565b7f4e487b7100000000000000000000000000000000000000000000000000000000600052601160045260246000fd5b6000612b1082611b11565b91507fffffffffffffffffffffffffffffffffffffffffffffffffffffffffffffffff8203612b4257612b41612ad6565b5b600182019050919050565b612b5681611fb5565b82525050565b6000602082019050612b716000830184612b4d565b92915050565b600080fd5b600080fd5b600081519050612b9081611fc9565b92915050565b600081519050612ba581611f89565b92915050565b60048110612bb857600080fd5b50565b600081519050612bca81612bab565b92915050565b600081519050612bdf816122ca565b92915050565b600067ffffffffffffffff821115612c0057612bff611d5d565b5b602082029050602081019050919050565b600067ffffffffffffffff821115612c2c57612c2b611d5d565b5b612c3582611c24565b9050602081019050919050565b6000612c55612c5084612c11565b611dbd565b905082815260208101848484011115612c7157612c70611d58565b5b612c7c848285611bfa565b509392505050565b600082601f830112612c9957612c98611d53565b5b8151612ca9848260208601612c42565b91505092915050565b6000612cc5612cc084612be5565b611dbd565b90508083825260208201905060208402830185811115612ce857612ce7611ffa565b5b835b81811015612d2f57805167ffffffffffffffff811115612d0d57612d0c611d53565b5b808601612d1a8982612c84565b85526020850194505050602081019050612cea565b5050509392505050565b600082601f830112612d4e57612d4d611d53565b5b8151612d5e848260208601612cb2565b91505092915050565b60006101408284031215612d7e57612d7d612b77565b5b612d89610140611dbd565b90506000612d9984828501612b81565b6000830152506020612dad84828501612b81565b6020830152506040612dc184828501612b81565b6040830152506060612dd584828501612b81565b6060830152506080612de984828501612b96565b60808301525060a0612dfd84828501612b81565b60a08301525060c0612e1184828501612bbb565b60c08301525060e0612e2584828501612bd0565b60e08301525061010082015167ffffffffffffffff811115612e4a57612e49612b7c565b5b612e5684828501612d39565b6101008301525061012082015167ffffffffffffffff811115612e7c57612e7b612b7c565b5b612e8884828501612c84565b6101208301525092915050565b600060208284031215612eab57612eaa611b07565b5b600082015167ffffffffffffffff811115612ec957612ec8611b0c565b5b612ed584828501612d67565b91505092915050565b60008190508160005260206000209050919050565b601f821115612f3457612f0581612ede565b612f0e84612805565b81016020851015612f1d578190505b612f31612f2985612805565b8301826128ec565b50505b505050565b612f4282612336565b67ffffffffffffffff811115612f5b57612f5a611d5d565b5b612f6582546126b8565b612f70828285612ef3565b600060209050601f831160018114612fa35760008415612f91578287015190505b612f9b8582612980565b865550613003565b601f198416612fb186612ede565b60005b82811015612fd957848901518255600182019150602085019450602081019050612fb4565b86831015612ff65784890151612ff2601f891682612962565b8355505b6001600288020188555050505b505050505050565b60008151905061301a81611b1b565b92915050565b6000806040838503121561303757613036611b07565b5b60006130458582860161300b565b92505060206130568582860161300b565b9150509250929050565b600060408201905061307560008301856120dd565b6130826020830184611b87565b9392505050565b60006020828403121561309f5761309e611b07565b5b60006130ad84828501612bd0565b91505092915050565b60006130c28385611be9565b93506130cf838584611e09565b6130d883611c24565b840190509392505050565b60006060820190506130f86000830187611b87565b6131056020830186611b87565b81810360408301526131188184866130b6565b905095945050505050565b600060608201905061313860008301866120dd565b61314560208301856120dd565b6131526040830184611b87565b949350505050565b600060408201905061316f6000830185611b87565b61317c6020830184611b87565b939250505056fea2646970667358221220dffaf3716d092e42016d3d93ec0189294672fd099e2aca2f6cdd17caebdf09ae64736f6c634300081b0033",
  "linkReferences": {},
  "deployedLinkReferences": {}
}