{
  "_format": "hh-sol-artifact-1",
  "contractName": "Hook",
  "sourceName": "contracts/Hook.sol",
  "abi": [
    {
      "inputs": [
        {
          "internalType": "address",
          "name": "_nft",
          "type": "address"
        },
        {
          "internalType": "address",
          "name": "_usdc",
          "type": "address"
        }
      ],
      "stateMutability": "nonpayable",
      "type": "constructor"
    },
    {
      "inputs": [
        {
          "internalType": "address",
          "name": "owner",
          "type": "address"
        }
      ],
      "name": "OwnableInvalidOwner",
      "type": "error"
    },
    {
      "inputs": [
        {
          "internalType": "address",
          "name": "account",
          "type": "address"
        }
      ],
      "name": "OwnableUnauthorizedAccount",
      "type": "error"
    },
    {
      "inputs": [],
      "name": "ReentrancyGuardReentrantCall",
      "type": "error"
    },
    {
      "anonymous": false,
      "inputs": [
        {
          "indexed": true,
          "internalType": "address",
          "name": "user",
          "type": "address"
        },
        {
          "indexed": false,
          "internalType": "uint256",
          "name": "projectId",
          "type": "uint256"
        },
        {
          "indexed": false,
          "internalType": "uint256",
          "name": "amount",
          "type": "uint256"
        }
      ],
      "name": "Deposit",
      "type": "event"
    },
    {
      "anonymous": false,
      "inputs": [
        {
          "indexed": true,
          "internalType": "uint256",
          "name": "projectId",
          "type": "uint256"
        },
        {
          "indexed": true,
          "internalType": "uint256",
          "name": "jobId",
          "type": "uint256"
        },
        {
          "indexed": false,
          "internalType": "string",
          "name": "name",
          "type": "string"
        },
        {
          "indexed": false,
          "internalType": "string",
          "name": "description",
          "type": "string"
        },
        {
          "indexed": false,
          "internalType": "uint256",
          "name": "amount",
          "type": "uint256"
        },
        {
          "indexed": false,
          "internalType": "string",
          "name": "metadata",
          "type": "string"
        },
        {
          "indexed": false,
          "internalType": "address",
          "name": "contractor",
          "type": "address"
        }
      ],
      "name": "JobCreated",
      "type": "event"
    },
    {
      "anonymous": false,
      "inputs": [
        {
          "indexed": true,
          "internalType": "address",
          "name": "previousOwner",
          "type": "address"
        },
        {
          "indexed": true,
          "internalType": "address",
          "name": "newOwner",
          "type": "address"
        }
      ],
      "name": "OwnershipTransferred",
      "type": "event"
    },
    {
      "anonymous": false,
      "inputs": [
        {
          "indexed": true,
          "internalType": "uint256",
          "name": "projectId",
          "type": "uint256"
        },
        {
          "indexed": false,
          "internalType": "uint256",
          "name": "amount",
          "type": "uint256"
        }
      ],
      "name": "ProjectCreated",
      "type": "event"
    },
    {
      "anonymous": false,
      "inputs": [
        {
          "indexed": true,
          "internalType": "uint256",
          "name": "projectId",
          "type": "uint256"
        },
        {
          "indexed": false,
          "internalType": "uint256",
          "name": "amount",
          "type": "uint256"
        }
      ],
      "name": "ProjectTerminated",
      "type": "event"
    },
    {
      "anonymous": false,
      "inputs": [
        {
          "indexed": true,
          "internalType": "address",
          "name": "user",
          "type": "address"
        },
        {
          "indexed": false,
          "internalType": "uint256",
          "name": "projectId",
          "type": "uint256"
        },
        {
          "indexed": false,
          "internalType": "uint256",
          "name": "amount",
          "type": "uint256"
        },
        {
          "indexed": false,
          "internalType": "string",
          "name": "reason",
          "type": "string"
        }
      ],
      "name": "Withdrawn",
      "type": "event"
    },
    {
      "inputs": [
        {
          "internalType": "uint256",
          "name": "_projectId",
          "type": "uint256"
        },
        {
          "internalType": "string",
          "name": "_jobName",
          "type": "string"
        },
        {
          "internalType": "string",
          "name": "_jobDescription",
          "type": "string"
        },
        {
          "internalType": "uint256",
          "name": "_jobAmount",
          "type": "uint256"
        },
        {
          "internalType": "string",
          "name": "_jobMetadata",
          "type": "string"
        }
      ],
      "name": "createJob",
      "outputs": [],
      "stateMutability": "nonpayable",
      "type": "function"
    },
    {
      "inputs": [
        {
          "internalType": "string",
          "name": "_description",
          "type": "string"
        },
        {
          "internalType": "uint256",
          "name": "_amount",
          "type": "uint256"
        }
      ],
      "name": "createProject",
      "outputs": [],
      "stateMutability": "nonpayable",
      "type": "function"
    },
    {
      "inputs": [
        {
          "internalType": "uint256",
          "name": "projectId",
          "type": "uint256"
        },
        {
          "internalType": "uint256",
          "name": "amount",
          "type": "uint256"
        }
      ],
      "name": "deposit",
      "outputs": [],
      "stateMutability": "payable",
      "type": "function"
    },
    {
      "inputs": [
        {
          "internalType": "uint256",
          "name": "projectId",
          "type": "uint256"
        },
        {
          "internalType": "uint256",
          "name": "amount",
          "type": "uint256"
        },
        {
          "internalType": "string",
          "name": "reason",
          "type": "string"
        }
      ],
      "name": "emergencyWithdraw",
      "outputs": [],
      "stateMutability": "nonpayable",
      "type": "function"
    },
    {
      "inputs": [
        {
          "internalType": "uint256",
          "name": "projectId",
          "type": "uint256"
        },
        {
          "internalType": "uint256",
          "name": "jobId",
          "type": "uint256"
        }
      ],
      "name": "finalizeJob",
      "outputs": [],
      "stateMutability": "nonpayable",
      "type": "function"
    },
    {
      "inputs": [
        {
          "internalType": "uint256",
          "name": "_projectId",
          "type": "uint256"
        },
        {
          "internalType": "uint256",
          "name": "_jobId",
          "type": "uint256"
        }
      ],
      "name": "getJob",
      "outputs": [
        {
          "internalType": "uint256",
          "name": "",
          "type": "uint256"
        },
        {
          "internalType": "string",
          "name": "",
          "type": "string"
        },
        {
          "internalType": "string",
          "name": "",
          "type": "string"
        },
        {
          "internalType": "uint256",
          "name": "",
          "type": "uint256"
        },
        {
          "internalType": "string",
          "name": "",
          "type": "string"
        }
      ],
      "stateMutability": "view",
      "type": "function"
    },
    {
      "inputs": [
        {
          "internalType": "uint256",
          "name": "_projectId",
          "type": "uint256"
        }
      ],
      "name": "getProject",
      "outputs": [
        {
          "internalType": "uint256",
          "name": "",
          "type": "uint256"
        },
        {
          "internalType": "string",
          "name": "",
          "type": "string"
        },
        {
          "internalType": "string",
          "name": "",
          "type": "string"
        },
        {
          "internalType": "uint256",
          "name": "",
          "type": "uint256"
        },
        {
          "components": [
            {
              "internalType": "uint256",
              "name": "jobId",
              "type": "uint256"
            },
            {
              "internalType": "string",
              "name": "name",
              "type": "string"
            },
            {
              "internalType": "string",
              "name": "description",
              "type": "string"
            },
            {
              "internalType": "uint256",
              "name": "amount",
              "type": "uint256"
            },
            {
              "internalType": "string",
              "name": "metadata",
              "type": "string"
            },
            {
              "internalType": "address",
              "name": "contractor",
              "type": "address"
            }
          ],
          "internalType": "struct Hook.Job[]",
          "name": "",
          "type": "tuple[]"
        }
      ],
      "stateMutability": "view",
      "type": "function"
    },
    {
      "inputs": [],
      "name": "nextJobId",
      "outputs": [
        {
          "internalType": "uint256",
          "name": "",
          "type": "uint256"
        }
      ],
      "stateMutability": "view",
      "type": "function"
    },
    {
      "inputs": [],
      "name": "nextProjectId",
      "outputs": [
        {
          "internalType": "uint256",
          "name": "",
          "type": "uint256"
        }
      ],
      "stateMutability": "view",
      "type": "function"
    },
    {
      "inputs": [],
      "name": "nft",
      "outputs": [
        {
          "internalType": "address",
          "name": "",
          "type": "address"
        }
      ],
      "stateMutability": "view",
      "type": "function"
    },
    {
      "inputs": [],
      "name": "owner",
      "outputs": [
        {
          "internalType": "address",
          "name": "",
          "type": "address"
        }
      ],
      "stateMutability": "view",
      "type": "function"
    },
    {
      "inputs": [
        {
          "internalType": "uint256",
          "name": "",
          "type": "uint256"
        }
      ],
      "name": "projects",
      "outputs": [
        {
          "internalType": "uint256",
          "name": "projectId",
          "type": "uint256"
        },
        {
          "internalType": "string",
          "name": "name",
          "type": "string"
        },
        {
          "internalType": "string",
          "name": "description",
          "type": "string"
        },
        {
          "internalType": "uint256",
          "name": "amount",
          "type": "uint256"
        },
        {
          "internalType": "uint8",
          "name": "action",
          "type": "uint8"
        }
      ],
      "stateMutability": "view",
      "type": "function"
    },
    {
      "inputs": [],
      "name": "renounceOwnership",
      "outputs": [],
      "stateMutability": "nonpayable",
      "type": "function"
    },
    {
      "inputs": [
        {
          "internalType": "uint256",
          "name": "projectId",
          "type": "uint256"
        }
      ],
      "name": "terminateProject",
      "outputs": [],
      "stateMutability": "nonpayable",
      "type": "function"
    },
    {
      "inputs": [
        {
          "internalType": "address",
          "name": "newOwner",
          "type": "address"
        }
      ],
      "name": "transferOwnership",
      "outputs": [],
      "stateMutability": "nonpayable",
      "type": "function"
    },
    {
      "inputs": [],
      "name": "usdc",
      "outputs": [
        {
          "internalType": "address",
          "name": "",
          "type": "address"
        }
      ],
      "stateMutability": "view",
      "type": "function"
    }
  ],
  "bytecode": "0x608060405234801561001057600080fd5b506040516129753803806129758339818101604052810190610032919061026c565b33600073ffffffffffffffffffffffffffffffffffffffff168173ffffffffffffffffffffffffffffffffffffffff16036100a55760006040517f1e4fbdf700000000000000000000000000000000000000000000000000000000815260040161009c91906102bb565b60405180910390fd5b6100b48161014560201b60201c565b506001808190555081600360006101000a81548173ffffffffffffffffffffffffffffffffffffffff021916908373ffffffffffffffffffffffffffffffffffffffff16021790555080600260006101000a81548173ffffffffffffffffffffffffffffffffffffffff021916908373ffffffffffffffffffffffffffffffffffffffff16021790555050506102d6565b60008060009054906101000a900473ffffffffffffffffffffffffffffffffffffffff169050816000806101000a81548173ffffffffffffffffffffffffffffffffffffffff021916908373ffffffffffffffffffffffffffffffffffffffff1602179055508173ffffffffffffffffffffffffffffffffffffffff168173ffffffffffffffffffffffffffffffffffffffff167f8be0079c531659141344cd1fd0a4f28419497f9722a3daafe3b4186f6b6457e060405160405180910390a35050565b600080fd5b600073ffffffffffffffffffffffffffffffffffffffff82169050919050565b60006102398261020e565b9050919050565b6102498161022e565b811461025457600080fd5b50565b60008151905061026681610240565b92915050565b6000806040838503121561028357610282610209565b5b600061029185828601610257565b92505060206102a285828601610257565b9150509250929050565b6102b58161022e565b82525050565b60006020820190506102d060008301846102ac565b92915050565b612690806102e56000396000f3fe6080604052600436106100f35760003560e01c8063715018a61161008a578063e2bbb15811610059578063e2bbb1581461030a578063e935b7b114610326578063f0f3f2c814610351578063f2fde38b14610392576100f3565b8063715018a6146102745780638da5cb5b1461028b57806391754a5d146102b6578063b0c2aa5e146102df576100f3565b80633e413bee116100c65780633e413bee146101cc5780633ee658aa146101f757806347ccca02146102205780634d7168af1461024b576100f3565b8063107046bd146100f857806319098166146101395780631a4bda611461017a57806322ba15fe146101a3575b600080fd5b34801561010457600080fd5b5061011f600480360381019061011a919061181d565b6103bb565b604051610130959493929190611905565b60405180910390f35b34801561014557600080fd5b50610160600480360381019061015b9190611966565b61050e565b6040516101719594939291906119a6565b60405180910390f35b34801561018657600080fd5b506101a1600480360381019061019c9190611b43565b6107b3565b005b3480156101af57600080fd5b506101ca60048036038101906101c59190611966565b610982565b005b3480156101d857600080fd5b506101e1610c32565b6040516101ee9190611c53565b60405180910390f35b34801561020357600080fd5b5061021e6004803603810190610219919061181d565b610c58565b005b34801561022c57600080fd5b50610235610dbe565b6040516102429190611c53565b60405180910390f35b34801561025757600080fd5b50610272600480360381019061026d9190611cce565b610de4565b005b34801561028057600080fd5b50610289610ee7565b005b34801561029757600080fd5b506102a0610efb565b6040516102ad9190611c53565b60405180910390f35b3480156102c257600080fd5b506102dd60048036038101906102d89190611d42565b610f24565b005b3480156102eb57600080fd5b506102f461107b565b6040516103019190611d9e565b60405180910390f35b610324600480360381019061031f9190611966565b611081565b005b34801561033257600080fd5b5061033b611178565b6040516103489190611d9e565b60405180910390f35b34801561035d57600080fd5b506103786004803603810190610373919061181d565b61117e565b604051610389959493929190611f7a565b60405180910390f35b34801561039e57600080fd5b506103b960048036038101906103b4919061200e565b61159d565b005b60046020528060005260406000206000915090508060000154908060010180546103e49061206a565b80601f01602080910402602001604051908101604052809291908181526020018280546104109061206a565b801561045d5780601f106104325761010080835404028352916020019161045d565b820191906000526020600020905b81548152906001019060200180831161044057829003601f168201915b5050505050908060020180546104729061206a565b80601f016020809104026020016040519081016040528092919081815260200182805461049e9061206a565b80156104eb5780601f106104c0576101008083540402835291602001916104eb565b820191906000526020600020905b8154815290600101906020018083116104ce57829003601f168201915b5050505050908060030154908060050160009054906101000a900460ff16905085565b600060608060006060600554871061055b576040517f08c379a0000000000000000000000000000000000000000000000000000000008152600401610552906120e7565b60405180910390fd5b6000600460008981526020019081526020016000209050806004018054905087106105bb576040517f08c379a00000000000000000000000000000000000000000000000000000000081526004016105b290612153565b60405180910390fd5b60008160040188815481106105d3576105d2612173565b5b90600052602060002090600602019050806000015481600101826002018360030154846004018380546106059061206a565b80601f01602080910402602001604051908101604052809291908181526020018280546106319061206a565b801561067e5780601f106106535761010080835404028352916020019161067e565b820191906000526020600020905b81548152906001019060200180831161066157829003601f168201915b505050505093508280546106919061206a565b80601f01602080910402602001604051908101604052809291908181526020018280546106bd9061206a565b801561070a5780601f106106df5761010080835404028352916020019161070a565b820191906000526020600020905b8154815290600101906020018083116106ed57829003601f168201915b5050505050925080805461071d9061206a565b80601f01602080910402602001604051908101604052809291908181526020018280546107499061206a565b80156107965780601f1061076b57610100808354040283529160200191610796565b820191906000526020600020905b81548152906001019060200180831161077957829003601f168201915b505050505090509650965096509650965050509295509295909350565b60055485106107f7576040517f08c379a00000000000000000000000000000000000000000000000000000000081526004016107ee906120e7565b60405180910390fd5b60006040518060c0016040528060065481526020018681526020018581526020018481526020018381526020013373ffffffffffffffffffffffffffffffffffffffff1681525090506004600087815260200190815260200160002060040181908060018154018082558091505060019003906000526020600020906006020160009091909190915060008201518160000155602082015181600101908161089f919061234e565b5060408201518160020190816108b5919061234e565b506060820151816003015560808201518160040190816108d5919061234e565b5060a08201518160050160006101000a81548173ffffffffffffffffffffffffffffffffffffffff021916908373ffffffffffffffffffffffffffffffffffffffff1602179055505050600654867f81cb99e31e7608cd5a8e40ab6617a956882f9d481c39b7b79e025a292025c093878787873360405161095a959493929190612420565b60405180910390a360066000815480929190610975906124b7565b9190505550505050505050565b60055482106109c6576040517f08c379a00000000000000000000000000000000000000000000000000000000081526004016109bd906120e7565b60405180910390fd5b600060046000848152602001908152602001600020905080600401805490508210610a26576040517f08c379a0000000000000000000000000000000000000000000000000000000008152600401610a1d90612153565b60405180910390fd5b600360009054906101000a900473ffffffffffffffffffffffffffffffffffffffff1673ffffffffffffffffffffffffffffffffffffffff16636a627842336040518263ffffffff1660e01b8152600401610a819190611c53565b600060405180830381600087803b158015610a9b57600080fd5b505af1158015610aaf573d6000803e3d6000fd5b50505050600260009054906101000a900473ffffffffffffffffffffffffffffffffffffffff1673ffffffffffffffffffffffffffffffffffffffff1663a9059cbb826004018481548110610b0757610b06612173565b5b906000526020600020906006020160050160009054906101000a900473ffffffffffffffffffffffffffffffffffffffff1683600301546040518363ffffffff1660e01b8152600401610b5b9291906124ff565b6020604051808303816000875af1158015610b7a573d6000803e3d6000fd5b505050506040513d601f19601f82011682018060405250810190610b9e9190612560565b50806004018281548110610bb557610bb4612173565b5b9060005260206000209060060201600080820160009055600182016000610bdc9190611776565b600282016000610bec9190611776565b6003820160009055600482016000610c049190611776565b6005820160006101000a81549073ffffffffffffffffffffffffffffffffffffffff02191690555050505050565b600260009054906101000a900473ffffffffffffffffffffffffffffffffffffffff1681565b610c60611623565b6005548110610ca4576040517f08c379a0000000000000000000000000000000000000000000000000000000008152600401610c9b906120e7565b60405180910390fd5b600060046000838152602001908152602001600020905060008160050160006101000a81548160ff021916908360ff160217905550600260009054906101000a900473ffffffffffffffffffffffffffffffffffffffff1673ffffffffffffffffffffffffffffffffffffffff1663a9059cbb3383600301546040518363ffffffff1660e01b8152600401610d3a9291906124ff565b6020604051808303816000875af1158015610d59573d6000803e3d6000fd5b505050506040513d601f19601f82011682018060405250810190610d7d9190612560565b50817fc367b469155be85bcd28bb26ee3edb67ed24d2b1f4f081f22166e780f922f7a98260030154604051610db29190611d9e565b60405180910390a25050565b600360009054906101000a900473ffffffffffffffffffffffffffffffffffffffff1681565b610dec611623565b600260009054906101000a900473ffffffffffffffffffffffffffffffffffffffff1673ffffffffffffffffffffffffffffffffffffffff1663a9059cbb33856040518363ffffffff1660e01b8152600401610e499291906124ff565b6020604051808303816000875af1158015610e68573d6000803e3d6000fd5b505050506040513d601f19601f82011682018060405250810190610e8c9190612560565b503373ffffffffffffffffffffffffffffffffffffffff167f62116a798bb58cc967874bea4d771de2f9aeec6c64189ff2e5a551072f3106f985858585604051610ed994939291906125ba565b60405180910390a250505050565b610eef611623565b610ef960006116aa565b565b60008060009054906101000a900473ffffffffffffffffffffffffffffffffffffffff16905090565b60006004600060055481526020019081526020016000209050600554816000018190555082816002019081610f59919061234e565b5081816003018190555060018160050160006101000a81548160ff021916908360ff160217905550600260009054906101000a900473ffffffffffffffffffffffffffffffffffffffff1673ffffffffffffffffffffffffffffffffffffffff166323b872dd3330856040518463ffffffff1660e01b8152600401610fe0939291906125fa565b6020604051808303816000875af1158015610fff573d6000803e3d6000fd5b505050506040513d601f19601f820116820180604052508101906110239190612560565b506005547fa759694985087d1b45767e3d6caca9d4fd179a5f1d9d28c42e9fa616113e477a836040516110569190611d9e565b60405180910390a260056000815480929190611071906124b7565b9190505550505050565b60065481565b600260009054906101000a900473ffffffffffffffffffffffffffffffffffffffff1673ffffffffffffffffffffffffffffffffffffffff166323b872dd3330846040518463ffffffff1660e01b81526004016110e0939291906125fa565b6020604051808303816000875af11580156110ff573d6000803e3d6000fd5b505050506040513d601f19601f820116820180604052508101906111239190612560565b503373ffffffffffffffffffffffffffffffffffffffff167f90890809c654f11d6e72a28fa60149770a0d11ec6c92319d6ceb2bb0a4ea1a15838360405161116c929190612631565b60405180910390a25050565b60055481565b60006060806000606060055486106111cb576040517f08c379a00000000000000000000000000000000000000000000000000000000081526004016111c2906120e7565b60405180910390fd5b6000600460008881526020019081526020016000209050806000015481600101826002018360030154846004018380546112049061206a565b80601f01602080910402602001604051908101604052809291908181526020018280546112309061206a565b801561127d5780601f106112525761010080835404028352916020019161127d565b820191906000526020600020905b81548152906001019060200180831161126057829003601f168201915b505050505093508280546112909061206a565b80601f01602080910402602001604051908101604052809291908181526020018280546112bc9061206a565b80156113095780601f106112de57610100808354040283529160200191611309565b820191906000526020600020905b8154815290600101906020018083116112ec57829003601f168201915b5050505050925080805480602002602001604051908101604052809291908181526020016000905b8282101561158357838290600052602060002090600602016040518060c00160405290816000820154815260200160018201805461136e9061206a565b80601f016020809104026020016040519081016040528092919081815260200182805461139a9061206a565b80156113e75780601f106113bc576101008083540402835291602001916113e7565b820191906000526020600020905b8154815290600101906020018083116113ca57829003601f168201915b505050505081526020016002820180546114009061206a565b80601f016020809104026020016040519081016040528092919081815260200182805461142c9061206a565b80156114795780601f1061144e57610100808354040283529160200191611479565b820191906000526020600020905b81548152906001019060200180831161145c57829003601f168201915b505050505081526020016003820154815260200160048201805461149c9061206a565b80601f01602080910402602001604051908101604052809291908181526020018280546114c89061206a565b80156115155780601f106114ea57610100808354040283529160200191611515565b820191906000526020600020905b8154815290600101906020018083116114f857829003601f168201915b505050505081526020016005820160009054906101000a900473ffffffffffffffffffffffffffffffffffffffff1673ffffffffffffffffffffffffffffffffffffffff1673ffffffffffffffffffffffffffffffffffffffff168152505081526020019060010190611331565b505050509050955095509550955095505091939590929450565b6115a5611623565b600073ffffffffffffffffffffffffffffffffffffffff168173ffffffffffffffffffffffffffffffffffffffff16036116175760006040517f1e4fbdf700000000000000000000000000000000000000000000000000000000815260040161160e9190611c53565b60405180910390fd5b611620816116aa565b50565b61162b61176e565b73ffffffffffffffffffffffffffffffffffffffff16611649610efb565b73ffffffffffffffffffffffffffffffffffffffff16146116a85761166c61176e565b6040517f118cdaa700000000000000000000000000000000000000000000000000000000815260040161169f9190611c53565b60405180910390fd5b565b60008060009054906101000a900473ffffffffffffffffffffffffffffffffffffffff169050816000806101000a81548173ffffffffffffffffffffffffffffffffffffffff021916908373ffffffffffffffffffffffffffffffffffffffff1602179055508173ffffffffffffffffffffffffffffffffffffffff168173ffffffffffffffffffffffffffffffffffffffff167f8be0079c531659141344cd1fd0a4f28419497f9722a3daafe3b4186f6b6457e060405160405180910390a35050565b600033905090565b5080546117829061206a565b6000825580601f1061179457506117b3565b601f0160209004906000526020600020908101906117b291906117b6565b5b50565b5b808211156117cf5760008160009055506001016117b7565b5090565b6000604051905090565b600080fd5b600080fd5b6000819050919050565b6117fa816117e7565b811461180557600080fd5b50565b600081359050611817816117f1565b92915050565b600060208284031215611833576118326117dd565b5b600061184184828501611808565b91505092915050565b611853816117e7565b82525050565b600081519050919050565b600082825260208201905092915050565b60005b83811015611893578082015181840152602081019050611878565b60008484015250505050565b6000601f19601f8301169050919050565b60006118bb82611859565b6118c58185611864565b93506118d5818560208601611875565b6118de8161189f565b840191505092915050565b600060ff82169050919050565b6118ff816118e9565b82525050565b600060a08201905061191a600083018861184a565b818103602083015261192c81876118b0565b9050818103604083015261194081866118b0565b905061194f606083018561184a565b61195c60808301846118f6565b9695505050505050565b6000806040838503121561197d5761197c6117dd565b5b600061198b85828601611808565b925050602061199c85828601611808565b9150509250929050565b600060a0820190506119bb600083018861184a565b81810360208301526119cd81876118b0565b905081810360408301526119e181866118b0565b90506119f0606083018561184a565b8181036080830152611a0281846118b0565b90509695505050505050565b600080fd5b600080fd5b7f4e487b7100000000000000000000000000000000000000000000000000000000600052604160045260246000fd5b611a508261189f565b810181811067ffffffffffffffff82111715611a6f57611a6e611a18565b5b80604052505050565b6000611a826117d3565b9050611a8e8282611a47565b919050565b600067ffffffffffffffff821115611aae57611aad611a18565b5b611ab78261189f565b9050602081019050919050565b82818337600083830152505050565b6000611ae6611ae184611a93565b611a78565b905082815260208101848484011115611b0257611b01611a13565b5b611b0d848285611ac4565b509392505050565b600082601f830112611b2a57611b29611a0e565b5b8135611b3a848260208601611ad3565b91505092915050565b600080600080600060a08688031215611b5f57611b5e6117dd565b5b6000611b6d88828901611808565b955050602086013567ffffffffffffffff811115611b8e57611b8d6117e2565b5b611b9a88828901611b15565b945050604086013567ffffffffffffffff811115611bbb57611bba6117e2565b5b611bc788828901611b15565b9350506060611bd888828901611808565b925050608086013567ffffffffffffffff811115611bf957611bf86117e2565b5b611c0588828901611b15565b9150509295509295909350565b600073ffffffffffffffffffffffffffffffffffffffff82169050919050565b6000611c3d82611c12565b9050919050565b611c4d81611c32565b82525050565b6000602082019050611c686000830184611c44565b92915050565b600080fd5b600080fd5b60008083601f840112611c8e57611c8d611a0e565b5b8235905067ffffffffffffffff811115611cab57611caa611c6e565b5b602083019150836001820283011115611cc757611cc6611c73565b5b9250929050565b60008060008060608587031215611ce857611ce76117dd565b5b6000611cf687828801611808565b9450506020611d0787828801611808565b935050604085013567ffffffffffffffff811115611d2857611d276117e2565b5b611d3487828801611c78565b925092505092959194509250565b60008060408385031215611d5957611d586117dd565b5b600083013567ffffffffffffffff811115611d7757611d766117e2565b5b611d8385828601611b15565b9250506020611d9485828601611808565b9150509250929050565b6000602082019050611db3600083018461184a565b92915050565b600081519050919050565b600082825260208201905092915050565b6000819050602082019050919050565b611dee816117e7565b82525050565b600082825260208201905092915050565b6000611e1082611859565b611e1a8185611df4565b9350611e2a818560208601611875565b611e338161189f565b840191505092915050565b611e4781611c32565b82525050565b600060c083016000830151611e656000860182611de5565b5060208301518482036020860152611e7d8282611e05565b91505060408301518482036040860152611e978282611e05565b9150506060830151611eac6060860182611de5565b5060808301518482036080860152611ec48282611e05565b91505060a0830151611ed960a0860182611e3e565b508091505092915050565b6000611ef08383611e4d565b905092915050565b6000602082019050919050565b6000611f1082611db9565b611f1a8185611dc4565b935083602082028501611f2c85611dd5565b8060005b85811015611f685784840389528151611f498582611ee4565b9450611f5483611ef8565b925060208a01995050600181019050611f30565b50829750879550505050505092915050565b600060a082019050611f8f600083018861184a565b8181036020830152611fa181876118b0565b90508181036040830152611fb581866118b0565b9050611fc4606083018561184a565b8181036080830152611fd68184611f05565b90509695505050505050565b611feb81611c32565b8114611ff657600080fd5b50565b60008135905061200881611fe2565b92915050565b600060208284031215612024576120236117dd565b5b600061203284828501611ff9565b91505092915050565b7f4e487b7100000000000000000000000000000000000000000000000000000000600052602260045260246000fd5b6000600282049050600182168061208257607f821691505b6020821081036120955761209461203b565b5b50919050565b7f50726f6a65637420646f6573206e6f742065786973742e000000000000000000600082015250565b60006120d1601783611864565b91506120dc8261209b565b602082019050919050565b60006020820190508181036000830152612100816120c4565b9050919050565b7f4a6f6220646f6573206e6f742065786973742e00000000000000000000000000600082015250565b600061213d601383611864565b915061214882612107565b602082019050919050565b6000602082019050818103600083015261216c81612130565b9050919050565b7f4e487b7100000000000000000000000000000000000000000000000000000000600052603260045260246000fd5b60008190508160005260206000209050919050565b60006020601f8301049050919050565b600082821b905092915050565b6000600883026122047fffffffffffffffffffffffffffffffffffffffffffffffffffffffffffffffff826121c7565b61220e86836121c7565b95508019841693508086168417925050509392505050565b6000819050919050565b600061224b612246612241846117e7565b612226565b6117e7565b9050919050565b6000819050919050565b61226583612230565b61227961227182612252565b8484546121d4565b825550505050565b600090565b61228e612281565b61229981848461225c565b505050565b5b818110156122bd576122b2600082612286565b60018101905061229f565b5050565b601f821115612302576122d3816121a2565b6122dc846121b7565b810160208510156122eb578190505b6122ff6122f7856121b7565b83018261229e565b50505b505050565b600082821c905092915050565b600061232560001984600802612307565b1980831691505092915050565b600061233e8383612314565b9150826002028217905092915050565b61235782611859565b67ffffffffffffffff8111156123705761236f611a18565b5b61237a825461206a565b6123858282856122c1565b600060209050601f8311600181146123b857600084156123a6578287015190505b6123b08582612332565b865550612418565b601f1984166123c6866121a2565b60005b828110156123ee578489015182556001820191506020850194506020810190506123c9565b8683101561240b5784890151612407601f891682612314565b8355505b6001600288020188555050505b505050505050565b600060a082019050818103600083015261243a81886118b0565b9050818103602083015261244e81876118b0565b905061245d604083018661184a565b818103606083015261246f81856118b0565b905061247e6080830184611c44565b9695505050505050565b7f4e487b7100000000000000000000000000000000000000000000000000000000600052601160045260246000fd5b60006124c2826117e7565b91507fffffffffffffffffffffffffffffffffffffffffffffffffffffffffffffffff82036124f4576124f3612488565b5b600182019050919050565b60006040820190506125146000830185611c44565b612521602083018461184a565b9392505050565b60008115159050919050565b61253d81612528565b811461254857600080fd5b50565b60008151905061255a81612534565b92915050565b600060208284031215612576576125756117dd565b5b60006125848482850161254b565b91505092915050565b60006125998385611864565b93506125a6838584611ac4565b6125af8361189f565b840190509392505050565b60006060820190506125cf600083018761184a565b6125dc602083018661184a565b81810360408301526125ef81848661258d565b905095945050505050565b600060608201905061260f6000830186611c44565b61261c6020830185611c44565b612629604083018461184a565b949350505050565b6000604082019050612646600083018561184a565b612653602083018461184a565b939250505056fea2646970667358221220a2e21fda2d9452cf27746500ef4b1906badeae06e91e1450a2326127c95386e064736f6c634300081b0033",
  "linkReferences": {},
  "deployedLinkReferences": {}
}