{
  "_format": "hh-sol-artifact-1",
  "contractName": "NFT",
  "sourceName": "contracts/NFT.sol",
  "abi": [
    {
      "inputs": [],
      "stateMutability": "nonpayable",
      "type": "constructor"
    },
    {
      "inputs": [
        {
          "internalType": "address",
          "name": "sender",
          "type": "address"
        },
        {
          "internalType": "uint256",
          "name": "tokenId",
          "type": "uint256"
        },
        {
          "internalType": "address",
          "name": "owner",
          "type": "address"
        }
      ],
      "name": "ERC721IncorrectOwner",
      "type": "error"
    },
    {
      "inputs": [
        {
          "internalType": "address",
          "name": "operator",
          "type": "address"
        },
        {
          "internalType": "uint256",
          "name": "tokenId",
          "type": "uint256"
        }
      ],
      "name": "ERC721InsufficientApproval",
      "type": "error"
    },
    {
      "inputs": [
        {
          "internalType": "address",
          "name": "approver",
          "type": "address"
        }
      ],
      "name": "ERC721InvalidApprover",
      "type": "error"
    },
    {
      "inputs": [
        {
          "internalType": "address",
          "name": "operator",
          "type": "address"
        }
      ],
      "name": "ERC721InvalidOperator",
      "type": "error"
    },
    {
      "inputs": [
        {
          "internalType": "address",
          "name": "owner",
          "type": "address"
        }
      ],
      "name": "ERC721InvalidOwner",
      "type": "error"
    },
    {
      "inputs": [
        {
          "internalType": "address",
          "name": "receiver",
          "type": "address"
        }
      ],
      "name": "ERC721InvalidReceiver",
      "type": "error"
    },
    {
      "inputs": [
        {
          "internalType": "address",
          "name": "sender",
          "type": "address"
        }
      ],
      "name": "ERC721InvalidSender",
      "type": "error"
    },
    {
      "inputs": [
        {
          "internalType": "uint256",
          "name": "tokenId",
          "type": "uint256"
        }
      ],
      "name": "ERC721NonexistentToken",
      "type": "error"
    },
    {
      "inputs": [
        {
          "internalType": "address",
          "name": "owner",
          "type": "address"
        }
      ],
      "name": "OwnableInvalidOwner",
      "type": "error"
    },
    {
      "inputs": [
        {
          "internalType": "address",
          "name": "account",
          "type": "address"
        }
      ],
      "name": "OwnableUnauthorizedAccount",
      "type": "error"
    },
    {
      "anonymous": false,
      "inputs": [
        {
          "indexed": true,
          "internalType": "address",
          "name": "owner",
          "type": "address"
        },
        {
          "indexed": true,
          "internalType": "address",
          "name": "approved",
          "type": "address"
        },
        {
          "indexed": true,
          "internalType": "uint256",
          "name": "tokenId",
          "type": "uint256"
        }
      ],
      "name": "Approval",
      "type": "event"
    },
    {
      "anonymous": false,
      "inputs": [
        {
          "indexed": true,
          "internalType": "address",
          "name": "owner",
          "type": "address"
        },
        {
          "indexed": true,
          "internalType": "address",
          "name": "operator",
          "type": "address"
        },
        {
          "indexed": false,
          "internalType": "bool",
          "name": "approved",
          "type": "bool"
        }
      ],
      "name": "ApprovalForAll",
      "type": "event"
    },
    {
      "anonymous": false,
      "inputs": [
        {
          "indexed": false,
          "internalType": "uint256",
          "name": "_fromTokenId",
          "type": "uint256"
        },
        {
          "indexed": false,
          "internalType": "uint256",
          "name": "_toTokenId",
          "type": "uint256"
        }
      ],
      "name": "BatchMetadataUpdate",
      "type": "event"
    },
    {
      "anonymous": false,
      "inputs": [
        {
          "indexed": false,
          "internalType": "uint256",
          "name": "_tokenId",
          "type": "uint256"
        }
      ],
      "name": "MetadataUpdate",
      "type": "event"
    },
    {
      "anonymous": false,
      "inputs": [
        {
          "indexed": true,
          "internalType": "address",
          "name": "previousOwner",
          "type": "address"
        },
        {
          "indexed": true,
          "internalType": "address",
          "name": "newOwner",
          "type": "address"
        }
      ],
      "name": "OwnershipTransferred",
      "type": "event"
    },
    {
      "anonymous": false,
      "inputs": [
        {
          "indexed": true,
          "internalType": "address",
          "name": "from",
          "type": "address"
        },
        {
          "indexed": true,
          "internalType": "address",
          "name": "to",
          "type": "address"
        },
        {
          "indexed": true,
          "internalType": "uint256",
          "name": "tokenId",
          "type": "uint256"
        }
      ],
      "name": "Transfer",
      "type": "event"
    },
    {
      "inputs": [
        {
          "internalType": "address",
          "name": "to",
          "type": "address"
        },
        {
          "internalType": "uint256",
          "name": "tokenId",
          "type": "uint256"
        }
      ],
      "name": "approve",
      "outputs": [],
      "stateMutability": "nonpayable",
      "type": "function"
    },
    {
      "inputs": [
        {
          "internalType": "address",
          "name": "owner",
          "type": "address"
        }
      ],
      "name": "balanceOf",
      "outputs": [
        {
          "internalType": "uint256",
          "name": "",
          "type": "uint256"
        }
      ],
      "stateMutability": "view",
      "type": "function"
    },
    {
      "inputs": [
        {
          "internalType": "uint256",
          "name": "tokenId",
          "type": "uint256"
        }
      ],
      "name": "getApproved",
      "outputs": [
        {
          "internalType": "address",
          "name": "",
          "type": "address"
        }
      ],
      "stateMutability": "view",
      "type": "function"
    },
    {
      "inputs": [],
      "name": "hookAddress",
      "outputs": [
        {
          "internalType": "address",
          "name": "",
          "type": "address"
        }
      ],
      "stateMutability": "view",
      "type": "function"
    },
    {
      "inputs": [
        {
          "internalType": "address",
          "name": "owner",
          "type": "address"
        },
        {
          "internalType": "address",
          "name": "operator",
          "type": "address"
        }
      ],
      "name": "isApprovedForAll",
      "outputs": [
        {
          "internalType": "bool",
          "name": "",
          "type": "bool"
        }
      ],
      "stateMutability": "view",
      "type": "function"
    },
    {
      "inputs": [
        {
          "internalType": "address",
          "name": "to",
          "type": "address"
        },
        {
          "internalType": "uint256",
          "name": "projectId",
          "type": "uint256"
        },
        {
          "internalType": "uint256",
          "name": "jobId",
          "type": "uint256"
        },
        {
          "internalType": "string",
          "name": "tokenUri",
          "type": "string"
        }
      ],
      "name": "mint",
      "outputs": [],
      "stateMutability": "nonpayable",
      "type": "function"
    },
    {
      "inputs": [],
      "name": "name",
      "outputs": [
        {
          "internalType": "string",
          "name": "",
          "type": "string"
        }
      ],
      "stateMutability": "view",
      "type": "function"
    },
    {
      "inputs": [],
      "name": "owner",
      "outputs": [
        {
          "internalType": "address",
          "name": "",
          "type": "address"
        }
      ],
      "stateMutability": "view",
      "type": "function"
    },
    {
      "inputs": [
        {
          "internalType": "uint256",
          "name": "tokenId",
          "type": "uint256"
        }
      ],
      "name": "ownerOf",
      "outputs": [
        {
          "internalType": "address",
          "name": "",
          "type": "address"
        }
      ],
      "stateMutability": "view",
      "type": "function"
    },
    {
      "inputs": [],
      "name": "renounceOwnership",
      "outputs": [],
      "stateMutability": "nonpayable",
      "type": "function"
    },
    {
      "inputs": [
        {
          "internalType": "address",
          "name": "from",
          "type": "address"
        },
        {
          "internalType": "address",
          "name": "to",
          "type": "address"
        },
        {
          "internalType": "uint256",
          "name": "tokenId",
          "type": "uint256"
        }
      ],
      "name": "safeTransferFrom",
      "outputs": [],
      "stateMutability": "nonpayable",
      "type": "function"
    },
    {
      "inputs": [
        {
          "internalType": "address",
          "name": "from",
          "type": "address"
        },
        {
          "internalType": "address",
          "name": "to",
          "type": "address"
        },
        {
          "internalType": "uint256",
          "name": "tokenId",
          "type": "uint256"
        },
        {
          "internalType": "bytes",
          "name": "data",
          "type": "bytes"
        }
      ],
      "name": "safeTransferFrom",
      "outputs": [],
      "stateMutability": "nonpayable",
      "type": "function"
    },
    {
      "inputs": [
        {
          "internalType": "address",
          "name": "operator",
          "type": "address"
        },
        {
          "internalType": "bool",
          "name": "approved",
          "type": "bool"
        }
      ],
      "name": "setApprovalForAll",
      "outputs": [],
      "stateMutability": "nonpayable",
      "type": "function"
    },
    {
      "inputs": [
        {
          "internalType": "address",
          "name": "_hookAddress",
          "type": "address"
        }
      ],
      "name": "setHookAddress",
      "outputs": [],
      "stateMutability": "nonpayable",
      "type": "function"
    },
    {
      "inputs": [
        {
          "internalType": "bytes4",
          "name": "interfaceId",
          "type": "bytes4"
        }
      ],
      "name": "supportsInterface",
      "outputs": [
        {
          "internalType": "bool",
          "name": "",
          "type": "bool"
        }
      ],
      "stateMutability": "view",
      "type": "function"
    },
    {
      "inputs": [],
      "name": "symbol",
      "outputs": [
        {
          "internalType": "string",
          "name": "",
          "type": "string"
        }
      ],
      "stateMutability": "view",
      "type": "function"
    },
    {
      "inputs": [
        {
          "internalType": "uint256",
          "name": "tokenId",
          "type": "uint256"
        }
      ],
      "name": "tokenURI",
      "outputs": [
        {
          "internalType": "string",
          "name": "",
          "type": "string"
        }
      ],
      "stateMutability": "view",
      "type": "function"
    },
    {
      "inputs": [
        {
          "internalType": "address",
          "name": "from",
          "type": "address"
        },
        {
          "internalType": "address",
          "name": "to",
          "type": "address"
        },
        {
          "internalType": "uint256",
          "name": "tokenId",
          "type": "uint256"
        }
      ],
      "name": "transferFrom",
      "outputs": [],
      "stateMutability": "nonpayable",
      "type": "function"
    },
    {
      "inputs": [
        {
          "internalType": "address",
          "name": "newOwner",
          "type": "address"
        }
      ],
      "name": "transferOwnership",
      "outputs": [],
      "stateMutability": "nonpayable",
      "type": "function"
    }
  ],
  "bytecode": "0x608060405234801561001057600080fd5b50336040518060400160405280600881526020017f536e6170747572650000000000000000000000000000000000000000000000008152506040518060400160405280600481526020017f534e415000000000000000000000000000000000000000000000000000000000815250816000908161008d919061043d565b50806001908161009d919061043d565b505050600073ffffffffffffffffffffffffffffffffffffffff168173ffffffffffffffffffffffffffffffffffffffff16036101125760006040517f1e4fbdf70000000000000000000000000000000000000000000000000000000081526004016101099190610550565b60405180910390fd5b6101218161012760201b60201c565b5061056b565b6000600760009054906101000a900473ffffffffffffffffffffffffffffffffffffffff16905081600760006101000a81548173ffffffffffffffffffffffffffffffffffffffff021916908373ffffffffffffffffffffffffffffffffffffffff1602179055508173ffffffffffffffffffffffffffffffffffffffff168173ffffffffffffffffffffffffffffffffffffffff167f8be0079c531659141344cd1fd0a4f28419497f9722a3daafe3b4186f6b6457e060405160405180910390a35050565b600081519050919050565b7f4e487b7100000000000000000000000000000000000000000000000000000000600052604160045260246000fd5b7f4e487b7100000000000000000000000000000000000000000000000000000000600052602260045260246000fd5b6000600282049050600182168061026e57607f821691505b60208210810361028157610280610227565b5b50919050565b60008190508160005260206000209050919050565b60006020601f8301049050919050565b600082821b905092915050565b6000600883026102e97fffffffffffffffffffffffffffffffffffffffffffffffffffffffffffffffff826102ac565b6102f386836102ac565b95508019841693508086168417925050509392505050565b6000819050919050565b6000819050919050565b600061033a6103356103308461030b565b610315565b61030b565b9050919050565b6000819050919050565b6103548361031f565b61036861036082610341565b8484546102b9565b825550505050565b600090565b61037d610370565b61038881848461034b565b505050565b5b818110156103ac576103a1600082610375565b60018101905061038e565b5050565b601f8211156103f1576103c281610287565b6103cb8461029c565b810160208510156103da578190505b6103ee6103e68561029c565b83018261038d565b50505b505050565b600082821c905092915050565b6000610414600019846008026103f6565b1980831691505092915050565b600061042d8383610403565b9150826002028217905092915050565b610446826101ed565b67ffffffffffffffff81111561045f5761045e6101f8565b5b6104698254610256565b6104748282856103b0565b600060209050601f8311600181146104a75760008415610495578287015190505b61049f8582610421565b865550610507565b601f1984166104b586610287565b60005b828110156104dd578489015182556001820191506020850194506020810190506104b8565b868310156104fa57848901516104f6601f891682610403565b8355505b6001600288020188555050505b505050505050565b600073ffffffffffffffffffffffffffffffffffffffff82169050919050565b600061053a8261050f565b9050919050565b61054a8161052f565b82525050565b60006020820190506105656000830184610541565b92915050565b6129ea8061057a6000396000f3fe608060405234801561001057600080fd5b50600436106101215760003560e01c806370a08231116100ad578063b88d4fde11610071578063b88d4fde146102f4578063bb7fde7114610310578063c87b56dd1461032c578063e985e9c51461035c578063f2fde38b1461038c57610121565b806370a0823114610262578063715018a6146102925780638da5cb5b1461029c57806395d89b41146102ba578063a22cb465146102d857610121565b806323b872dd116100f457806323b872dd146101c057806332a3cf96146101dc57806342842e0e146101fa57806345863322146102165780636352211e1461023257610121565b806301ffc9a71461012657806306fdde0314610156578063081812fc14610174578063095ea7b3146101a4575b600080fd5b610140600480360381019061013b9190611cf8565b6103a8565b60405161014d9190611d40565b60405180910390f35b61015e610409565b60405161016b9190611deb565b60405180910390f35b61018e60048036038101906101899190611e43565b61049b565b60405161019b9190611eb1565b60405180910390f35b6101be60048036038101906101b99190611ef8565b6104b7565b005b6101da60048036038101906101d59190611f38565b6104cd565b005b6101e46105cf565b6040516101f19190611eb1565b60405180910390f35b610214600480360381019061020f9190611f38565b6105f5565b005b610230600480360381019061022b9190611f8b565b610615565b005b61024c60048036038101906102479190611e43565b610661565b6040516102599190611eb1565b60405180910390f35b61027c60048036038101906102779190611f8b565b610673565b6040516102899190611fc7565b60405180910390f35b61029a61072d565b005b6102a4610741565b6040516102b19190611eb1565b60405180910390f35b6102c261076b565b6040516102cf9190611deb565b60405180910390f35b6102f260048036038101906102ed919061200e565b6107fd565b005b61030e60048036038101906103099190612183565b610813565b005b61032a600480360381019061032591906122a7565b610830565b005b61034660048036038101906103419190611e43565b61095c565b6040516103539190611deb565b60405180910390f35b6103766004803603810190610371919061232a565b610a6f565b6040516103839190611d40565b60405180910390f35b6103a660048036038101906103a19190611f8b565b610b03565b005b6000634906490660e01b7bffffffffffffffffffffffffffffffffffffffffffffffffffffffff1916827bffffffffffffffffffffffffffffffffffffffffffffffffffffffff19161480610402575061040182610b89565b5b9050919050565b60606000805461041890612399565b80601f016020809104026020016040519081016040528092919081815260200182805461044490612399565b80156104915780601f1061046657610100808354040283529160200191610491565b820191906000526020600020905b81548152906001019060200180831161047457829003601f168201915b5050505050905090565b60006104a682610c6b565b506104b082610cf3565b9050919050565b6104c982826104c4610d30565b610d38565b5050565b600073ffffffffffffffffffffffffffffffffffffffff168273ffffffffffffffffffffffffffffffffffffffff160361053f5760006040517f64a0ae920000000000000000000000000000000000000000000000000000000081526004016105369190611eb1565b60405180910390fd5b6000610553838361054e610d30565b610d4a565b90508373ffffffffffffffffffffffffffffffffffffffff168173ffffffffffffffffffffffffffffffffffffffff16146105c9578382826040517f64283d7b0000000000000000000000000000000000000000000000000000000081526004016105c0939291906123ca565b60405180910390fd5b50505050565b600860009054906101000a900473ffffffffffffffffffffffffffffffffffffffff1681565b61061083838360405180602001604052806000815250610813565b505050565b61061d610f64565b80600860006101000a81548173ffffffffffffffffffffffffffffffffffffffff021916908373ffffffffffffffffffffffffffffffffffffffff16021790555050565b600061066c82610c6b565b9050919050565b60008073ffffffffffffffffffffffffffffffffffffffff168273ffffffffffffffffffffffffffffffffffffffff16036106e65760006040517f89c62b640000000000000000000000000000000000000000000000000000000081526004016106dd9190611eb1565b60405180910390fd5b600360008373ffffffffffffffffffffffffffffffffffffffff1673ffffffffffffffffffffffffffffffffffffffff168152602001908152602001600020549050919050565b610735610f64565b61073f6000610feb565b565b6000600760009054906101000a900473ffffffffffffffffffffffffffffffffffffffff16905090565b60606001805461077a90612399565b80601f01602080910402602001604051908101604052809291908181526020018280546107a690612399565b80156107f35780601f106107c8576101008083540402835291602001916107f3565b820191906000526020600020905b8154815290600101906020018083116107d657829003601f168201915b5050505050905090565b61080f610808610d30565b83836110b1565b5050565b61081e8484846104cd565b61082a84848484611220565b50505050565b600860009054906101000a900473ffffffffffffffffffffffffffffffffffffffff1673ffffffffffffffffffffffffffffffffffffffff163373ffffffffffffffffffffffffffffffffffffffff1614806108be575061088f610741565b73ffffffffffffffffffffffffffffffffffffffff163373ffffffffffffffffffffffffffffffffffffffff16145b6108fd576040517f08c379a00000000000000000000000000000000000000000000000000000000081526004016108f490612473565b60405180910390fd5b6000610908846113d7565b610911846113d7565b6040516020016109229291906124cf565b6040516020818303038152906040529050600061093e826114a5565b905061094a8682611539565b6109548184611557565b505050505050565b606061096782610c6b565b50600060066000848152602001908152602001600020805461098890612399565b80601f01602080910402602001604051908101604052809291908181526020018280546109b490612399565b8015610a015780601f106109d657610100808354040283529160200191610a01565b820191906000526020600020905b8154815290600101906020018083116109e457829003601f168201915b505050505090506000610a126115b3565b90506000815103610a27578192505050610a6a565b600082511115610a5c578082604051602001610a449291906124cf565b60405160208183030381529060405292505050610a6a565b610a65846115ca565b925050505b919050565b6000600560008473ffffffffffffffffffffffffffffffffffffffff1673ffffffffffffffffffffffffffffffffffffffff16815260200190815260200160002060008373ffffffffffffffffffffffffffffffffffffffff1673ffffffffffffffffffffffffffffffffffffffff16815260200190815260200160002060009054906101000a900460ff16905092915050565b610b0b610f64565b600073ffffffffffffffffffffffffffffffffffffffff168173ffffffffffffffffffffffffffffffffffffffff1603610b7d5760006040517f1e4fbdf7000000000000000000000000000000000000000000000000000000008152600401610b749190611eb1565b60405180910390fd5b610b8681610feb565b50565b60007f80ac58cd000000000000000000000000000000000000000000000000000000007bffffffffffffffffffffffffffffffffffffffffffffffffffffffff1916827bffffffffffffffffffffffffffffffffffffffffffffffffffffffff19161480610c5457507f5b5e139f000000000000000000000000000000000000000000000000000000007bffffffffffffffffffffffffffffffffffffffffffffffffffffffff1916827bffffffffffffffffffffffffffffffffffffffffffffffffffffffff1916145b80610c645750610c6382611633565b5b9050919050565b600080610c778361169d565b9050600073ffffffffffffffffffffffffffffffffffffffff168173ffffffffffffffffffffffffffffffffffffffff1603610cea57826040517f7e273289000000000000000000000000000000000000000000000000000000008152600401610ce19190611fc7565b60405180910390fd5b80915050919050565b60006004600083815260200190815260200160002060009054906101000a900473ffffffffffffffffffffffffffffffffffffffff169050919050565b600033905090565b610d4583838360016116da565b505050565b600080610d568461169d565b9050600073ffffffffffffffffffffffffffffffffffffffff168373ffffffffffffffffffffffffffffffffffffffff1614610d9857610d9781848661189f565b5b600073ffffffffffffffffffffffffffffffffffffffff168173ffffffffffffffffffffffffffffffffffffffff1614610e2957610dda6000856000806116da565b6001600360008373ffffffffffffffffffffffffffffffffffffffff1673ffffffffffffffffffffffffffffffffffffffff168152602001908152602001600020600082825403925050819055505b600073ffffffffffffffffffffffffffffffffffffffff168573ffffffffffffffffffffffffffffffffffffffff1614610eac576001600360008773ffffffffffffffffffffffffffffffffffffffff1673ffffffffffffffffffffffffffffffffffffffff168152602001908152602001600020600082825401925050819055505b846002600086815260200190815260200160002060006101000a81548173ffffffffffffffffffffffffffffffffffffffff021916908373ffffffffffffffffffffffffffffffffffffffff160217905550838573ffffffffffffffffffffffffffffffffffffffff168273ffffffffffffffffffffffffffffffffffffffff167fddf252ad1be2c89b69c2b068fc378daa952ba7f163c4a11628f55a4df523b3ef60405160405180910390a4809150509392505050565b610f6c610d30565b73ffffffffffffffffffffffffffffffffffffffff16610f8a610741565b73ffffffffffffffffffffffffffffffffffffffff1614610fe957610fad610d30565b6040517f118cdaa7000000000000000000000000000000000000000000000000000000008152600401610fe09190611eb1565b60405180910390fd5b565b6000600760009054906101000a900473ffffffffffffffffffffffffffffffffffffffff16905081600760006101000a81548173ffffffffffffffffffffffffffffffffffffffff021916908373ffffffffffffffffffffffffffffffffffffffff1602179055508173ffffffffffffffffffffffffffffffffffffffff168173ffffffffffffffffffffffffffffffffffffffff167f8be0079c531659141344cd1fd0a4f28419497f9722a3daafe3b4186f6b6457e060405160405180910390a35050565b600073ffffffffffffffffffffffffffffffffffffffff168273ffffffffffffffffffffffffffffffffffffffff160361112257816040517f5b08ba180000000000000000000000000000000000000000000000000000000081526004016111199190611eb1565b60405180910390fd5b80600560008573ffffffffffffffffffffffffffffffffffffffff1673ffffffffffffffffffffffffffffffffffffffff16815260200190815260200160002060008473ffffffffffffffffffffffffffffffffffffffff1673ffffffffffffffffffffffffffffffffffffffff16815260200190815260200160002060006101000a81548160ff0219169083151502179055508173ffffffffffffffffffffffffffffffffffffffff168373ffffffffffffffffffffffffffffffffffffffff167f17307eab39ab6107e8899845ad3d59bd9653f200f220920489ca2b5937696c31836040516112139190611d40565b60405180910390a3505050565b60008373ffffffffffffffffffffffffffffffffffffffff163b11156113d1578273ffffffffffffffffffffffffffffffffffffffff1663150b7a02611264610d30565b8685856040518563ffffffff1660e01b81526004016112869493929190612548565b6020604051808303816000875af19250505080156112c257506040513d601f19601f820116820180604052508101906112bf91906125a9565b60015b611346573d80600081146112f2576040519150601f19603f3d011682016040523d82523d6000602084013e6112f7565b606091505b50600081510361133e57836040517f64a0ae920000000000000000000000000000000000000000000000000000000081526004016113359190611eb1565b60405180910390fd5b805181602001fd5b63150b7a0260e01b7bffffffffffffffffffffffffffffffffffffffffffffffffffffffff1916817bffffffffffffffffffffffffffffffffffffffffffffffffffffffff1916146113cf57836040517f64a0ae920000000000000000000000000000000000000000000000000000000081526004016113c69190611eb1565b60405180910390fd5b505b50505050565b6060600060016113e684611963565b01905060008167ffffffffffffffff81111561140557611404612058565b5b6040519080825280601f01601f1916602001820160405280156114375781602001600182028036833780820191505090505b509050600082602001820190505b60011561149a578080600190039150507f3031323334353637383961626364656600000000000000000000000000000000600a86061a8153600a858161148e5761148d6125d6565b5b04945060008503611445575b819350505050919050565b6000808290506000809250600090505b81518110156115325760008282815181106114d3576114d2612605565b5b602001015160f81c60f81b60f81c60ff169050603081101580156114f8575060398111155b156115245760308161150a9190612663565b600a856115179190612697565b61152191906126d9565b93505b5080806001019150506114b5565b5050919050565b611553828260405180602001604052806000815250611ab6565b5050565b8060066000848152602001908152602001600020908161157791906128b9565b507ff8e1a15aba9398e019f0b49df1a4fde98ee17ae345cb5f6b5e2c27f5033e8ce7826040516115a79190611fc7565b60405180910390a15050565b606060405180602001604052806000815250905090565b60606115d582610c6b565b5060006115e06115b3565b90506000815111611600576040518060200160405280600081525061162b565b8061160a846113d7565b60405160200161161b9291906124cf565b6040516020818303038152906040525b915050919050565b60007f01ffc9a7000000000000000000000000000000000000000000000000000000007bffffffffffffffffffffffffffffffffffffffffffffffffffffffff1916827bffffffffffffffffffffffffffffffffffffffffffffffffffffffff1916149050919050565b60006002600083815260200190815260200160002060009054906101000a900473ffffffffffffffffffffffffffffffffffffffff169050919050565b80806117135750600073ffffffffffffffffffffffffffffffffffffffff168273ffffffffffffffffffffffffffffffffffffffff1614155b1561184757600061172384610c6b565b9050600073ffffffffffffffffffffffffffffffffffffffff168373ffffffffffffffffffffffffffffffffffffffff161415801561178e57508273ffffffffffffffffffffffffffffffffffffffff168173ffffffffffffffffffffffffffffffffffffffff1614155b80156117a1575061179f8184610a6f565b155b156117e357826040517fa9fbf51f0000000000000000000000000000000000000000000000000000000081526004016117da9190611eb1565b60405180910390fd5b811561184557838573ffffffffffffffffffffffffffffffffffffffff168273ffffffffffffffffffffffffffffffffffffffff167f8c5be1e5ebec7d5bd14f71427d1e84f3dd0314c0f7b2291e5b200ac8c7c3b92560405160405180910390a45b505b836004600085815260200190815260200160002060006101000a81548173ffffffffffffffffffffffffffffffffffffffff021916908373ffffffffffffffffffffffffffffffffffffffff16021790555050505050565b6118aa838383611ad2565b61195e57600073ffffffffffffffffffffffffffffffffffffffff168373ffffffffffffffffffffffffffffffffffffffff160361191f57806040517f7e2732890000000000000000000000000000000000000000000000000000000081526004016119169190611fc7565b60405180910390fd5b81816040517f177e802f00000000000000000000000000000000000000000000000000000000815260040161195592919061298b565b60405180910390fd5b505050565b600080600090507a184f03e93ff9f4daa797ed6e38ed64bf6a1f01000000000000000083106119c1577a184f03e93ff9f4daa797ed6e38ed64bf6a1f01000000000000000083816119b7576119b66125d6565b5b0492506040810190505b6d04ee2d6d415b85acef810000000083106119fe576d04ee2d6d415b85acef810000000083816119f4576119f36125d6565b5b0492506020810190505b662386f26fc100008310611a2d57662386f26fc100008381611a2357611a226125d6565b5b0492506010810190505b6305f5e1008310611a56576305f5e1008381611a4c57611a4b6125d6565b5b0492506008810190505b6127108310611a7b576127108381611a7157611a706125d6565b5b0492506004810190505b60648310611a9e5760648381611a9457611a936125d6565b5b0492506002810190505b600a8310611aad576001810190505b80915050919050565b611ac08383611b93565b611acd6000848484611220565b505050565b60008073ffffffffffffffffffffffffffffffffffffffff168373ffffffffffffffffffffffffffffffffffffffff1614158015611b8a57508273ffffffffffffffffffffffffffffffffffffffff168473ffffffffffffffffffffffffffffffffffffffff161480611b4b5750611b4a8484610a6f565b5b80611b8957508273ffffffffffffffffffffffffffffffffffffffff16611b7183610cf3565b73ffffffffffffffffffffffffffffffffffffffff16145b5b90509392505050565b600073ffffffffffffffffffffffffffffffffffffffff168273ffffffffffffffffffffffffffffffffffffffff1603611c055760006040517f64a0ae92000000000000000000000000000000000000000000000000000000008152600401611bfc9190611eb1565b60405180910390fd5b6000611c1383836000610d4a565b9050600073ffffffffffffffffffffffffffffffffffffffff168173ffffffffffffffffffffffffffffffffffffffff1614611c875760006040517f73c6ac6e000000000000000000000000000000000000000000000000000000008152600401611c7e9190611eb1565b60405180910390fd5b505050565b6000604051905090565b600080fd5b600080fd5b60007fffffffff0000000000000000000000000000000000000000000000000000000082169050919050565b611cd581611ca0565b8114611ce057600080fd5b50565b600081359050611cf281611ccc565b92915050565b600060208284031215611d0e57611d0d611c96565b5b6000611d1c84828501611ce3565b91505092915050565b60008115159050919050565b611d3a81611d25565b82525050565b6000602082019050611d556000830184611d31565b92915050565b600081519050919050565b600082825260208201905092915050565b60005b83811015611d95578082015181840152602081019050611d7a565b60008484015250505050565b6000601f19601f8301169050919050565b6000611dbd82611d5b565b611dc78185611d66565b9350611dd7818560208601611d77565b611de081611da1565b840191505092915050565b60006020820190508181036000830152611e058184611db2565b905092915050565b6000819050919050565b611e2081611e0d565b8114611e2b57600080fd5b50565b600081359050611e3d81611e17565b92915050565b600060208284031215611e5957611e58611c96565b5b6000611e6784828501611e2e565b91505092915050565b600073ffffffffffffffffffffffffffffffffffffffff82169050919050565b6000611e9b82611e70565b9050919050565b611eab81611e90565b82525050565b6000602082019050611ec66000830184611ea2565b92915050565b611ed581611e90565b8114611ee057600080fd5b50565b600081359050611ef281611ecc565b92915050565b60008060408385031215611f0f57611f0e611c96565b5b6000611f1d85828601611ee3565b9250506020611f2e85828601611e2e565b9150509250929050565b600080600060608486031215611f5157611f50611c96565b5b6000611f5f86828701611ee3565b9350506020611f7086828701611ee3565b9250506040611f8186828701611e2e565b9150509250925092565b600060208284031215611fa157611fa0611c96565b5b6000611faf84828501611ee3565b91505092915050565b611fc181611e0d565b82525050565b6000602082019050611fdc6000830184611fb8565b92915050565b611feb81611d25565b8114611ff657600080fd5b50565b60008135905061200881611fe2565b92915050565b6000806040838503121561202557612024611c96565b5b600061203385828601611ee3565b925050602061204485828601611ff9565b9150509250929050565b600080fd5b600080fd5b7f4e487b7100000000000000000000000000000000000000000000000000000000600052604160045260246000fd5b61209082611da1565b810181811067ffffffffffffffff821117156120af576120ae612058565b5b80604052505050565b60006120c2611c8c565b90506120ce8282612087565b919050565b600067ffffffffffffffff8211156120ee576120ed612058565b5b6120f782611da1565b9050602081019050919050565b82818337600083830152505050565b6000612126612121846120d3565b6120b8565b90508281526020810184848401111561214257612141612053565b5b61214d848285612104565b509392505050565b600082601f83011261216a5761216961204e565b5b813561217a848260208601612113565b91505092915050565b6000806000806080858703121561219d5761219c611c96565b5b60006121ab87828801611ee3565b94505060206121bc87828801611ee3565b93505060406121cd87828801611e2e565b925050606085013567ffffffffffffffff8111156121ee576121ed611c9b565b5b6121fa87828801612155565b91505092959194509250565b600067ffffffffffffffff82111561222157612220612058565b5b61222a82611da1565b9050602081019050919050565b600061224a61224584612206565b6120b8565b90508281526020810184848401111561226657612265612053565b5b612271848285612104565b509392505050565b600082601f83011261228e5761228d61204e565b5b813561229e848260208601612237565b91505092915050565b600080600080608085870312156122c1576122c0611c96565b5b60006122cf87828801611ee3565b94505060206122e087828801611e2e565b93505060406122f187828801611e2e565b925050606085013567ffffffffffffffff81111561231257612311611c9b565b5b61231e87828801612279565b91505092959194509250565b6000806040838503121561234157612340611c96565b5b600061234f85828601611ee3565b925050602061236085828601611ee3565b9150509250929050565b7f4e487b7100000000000000000000000000000000000000000000000000000000600052602260045260246000fd5b600060028204905060018216806123b157607f821691505b6020821081036123c4576123c361236a565b5b50919050565b60006060820190506123df6000830186611ea2565b6123ec6020830185611fb8565b6123f96040830184611ea2565b949350505050565b7f4f6e6c792074686520686f6f6b20636f6e7472616374206f72206f776e65722060008201527f63616e2063616c6c20746869732066756e6374696f6e00000000000000000000602082015250565b600061245d603683611d66565b915061246882612401565b604082019050919050565b6000602082019050818103600083015261248c81612450565b9050919050565b600081905092915050565b60006124a982611d5b565b6124b38185612493565b93506124c3818560208601611d77565b80840191505092915050565b60006124db828561249e565b91506124e7828461249e565b91508190509392505050565b600081519050919050565b600082825260208201905092915050565b600061251a826124f3565b61252481856124fe565b9350612534818560208601611d77565b61253d81611da1565b840191505092915050565b600060808201905061255d6000830187611ea2565b61256a6020830186611ea2565b6125776040830185611fb8565b8181036060830152612589818461250f565b905095945050505050565b6000815190506125a381611ccc565b92915050565b6000602082840312156125bf576125be611c96565b5b60006125cd84828501612594565b91505092915050565b7f4e487b7100000000000000000000000000000000000000000000000000000000600052601260045260246000fd5b7f4e487b7100000000000000000000000000000000000000000000000000000000600052603260045260246000fd5b7f4e487b7100000000000000000000000000000000000000000000000000000000600052601160045260246000fd5b600061266e82611e0d565b915061267983611e0d565b925082820390508181111561269157612690612634565b5b92915050565b60006126a282611e0d565b91506126ad83611e0d565b92508282026126bb81611e0d565b915082820484148315176126d2576126d1612634565b5b5092915050565b60006126e482611e0d565b91506126ef83611e0d565b925082820190508082111561270757612706612634565b5b92915050565b60008190508160005260206000209050919050565b60006020601f8301049050919050565b600082821b905092915050565b60006008830261276f7fffffffffffffffffffffffffffffffffffffffffffffffffffffffffffffffff82612732565b6127798683612732565b95508019841693508086168417925050509392505050565b6000819050919050565b60006127b66127b16127ac84611e0d565b612791565b611e0d565b9050919050565b6000819050919050565b6127d08361279b565b6127e46127dc826127bd565b84845461273f565b825550505050565b600090565b6127f96127ec565b6128048184846127c7565b505050565b5b818110156128285761281d6000826127f1565b60018101905061280a565b5050565b601f82111561286d5761283e8161270d565b61284784612722565b81016020851015612856578190505b61286a61286285612722565b830182612809565b50505b505050565b600082821c905092915050565b600061289060001984600802612872565b1980831691505092915050565b60006128a9838361287f565b9150826002028217905092915050565b6128c282611d5b565b67ffffffffffffffff8111156128db576128da612058565b5b6128e58254612399565b6128f082828561282c565b600060209050601f8311600181146129235760008415612911578287015190505b61291b858261289d565b865550612983565b601f1984166129318661270d565b60005b8281101561295957848901518255600182019150602085019450602081019050612934565b868310156129765784890151612972601f89168261287f565b8355505b6001600288020188555050505b505050505050565b60006040820190506129a06000830185611ea2565b6129ad6020830184611fb8565b939250505056fea26469706673582212207b182e215b27be8f061401b299ba3e6939689a894b5fe25c943c7ca0d56c4b0864736f6c634300081b0033",
  "linkReferences": {},
  "deployedLinkReferences": {}
}